:100000000C942A000C9434000C9434000C943400AA
:100010000C9434000C9434000C9434000C94340090
:100020000C9434000C9434000C9434000C94340080
:100030000C9434000C9434000C9434000C94340070
:100040000C9434000C9434000C9434000C94340060
:100050000C94340011241FBECFE5D8E0DEBFCDBF25
:100060000E9436000C949F000C9400008FEF87BB19
:1000700018BA60E875E280E090E00E944A00CFEF95
:100080000E947900813311F4C8BBFACF8033C1F7E5
:1000900018BAF6CF1BB82AB128612AB920B526684C
:1000A00020BDDC01CB01880F991FAA1FBB1F880F41
:1000B000991FAA1FBB1F9C01AD01220F331F441FB4
:1000C000551F220F331F441F551F60E072E18AE75E
:1000D00090E00E947D008FEF820F89B9DA01C9019B
:1000E0000197A109B109892F9A2FAB2FBB2780BD9A
:1000F00008955F9BFECF8CB10895A1E21A2EAA1B32
:10010000BB1BFD010DC0AA1FBB1FEE1FFF1FA217C7
:10011000B307E407F50720F0A21BB30BE40BF50BC4
:10012000661F771F881F991F1A9469F7609570954D
:10013000809590959B01AC01BD01CF010895F89485
:02014000FFCFEF
:00000001FF
