:100000000C9418050C949C110C9435050C94350532
:100010000C9435050C9435050C9435050C94350578
:100020000C9435050C9446050C9435050C94350557
:100030000C9435050C94AF0B0C94D80B0C9435052F
:100040000C9435050C9435050C9435050C94350548
:100050000C943505036EDB363D9A9999993DABAA10
:10006000AA2A3E000000803F084AD73B3BCE016EE3
:1000700084BCBFFDC12F3D6C74319ABD56833DDAFF
:100080003D00C77F11BED9E4BB4C3E916BAAAABE0E
:10009000000000803F072C7AA5BA6CC590DA3B932C
:1000A00065FC8BBC53F810FD3C5692834DBD879D7B
:1000B0003AB63DCBC9BF5BBE73DA0FC93F0001B290
:1000C00002FFFF0190040923A135016A0206000125
:1000D0006008000000000000000000600440000014
:1000E00000016202000000600400400000037B0386
:1000F0004CCD6C03AB0336567600680402CB47A2A6
:1001000002180400058BC1010C0400000000037FED
:10011000060CC92C979797038903264666006C0244
:10012000200002400400000000024404000000001F
:1001300002480400000000024C04000000000250CD
:1001400004000000000254040000000002580400F3
:10015000000000025C040000000002BC040000007B
:100160000001EC0400004000037F060CC92C9797A7
:10017000970402030D355D040904872D353D00A366
:10018000010000000001078601FE074105F120285B
:100190003038077E01300746019A074704F12830BE
:1001A00038076C04F12830380216020009FB000001
:1001B0003E000B0036000100020003000000650055
:1001C00054FFEF0000FA80000B12820001000200D1
:1001D00000000000000000000000000000002800F7
:1001E00000FFFF4581FFFFFA7200000000000003DE
:1001F000E80000000100017FFFFFFE8001001B00FE
:1002000000000000000000000000000000003E03AD
:10021000304000000002CAE3093E800000200000D8
:100220000000000000400000006000000041FF00EE
:100230000000000B2A0000165500002182FD8726D1
:1002400050FD800000001F0000000580000000003D
:100250000000010000000200000003000040000058
:10026000000000046F0002653200005EC040000024
:1002700000000000000000000000000000FB8C6F88
:100280005DFD5D08D9007C733B006C12CC3200131D
:100290009D3200D0D632000800400001F4FFE68015
:1002A00079020000000000D0D600002710FB0000FB
:1002B00000400000000000000000000000000000FE
:1002C000010000000000000100010000000000FA31
:1002D00036FFBC308E0005FBF0FFD95BC8FFD09A1B
:1002E000BE000010A9FFF41EB200CEBBF700000054
:1002F0000100000004000200020200000CFFC280A6
:10030000000001800000CF800040000000000000DD
:1003100001000000000000060000000014000000C2
:1003200000000000000000000000000000000000CD
:1003300000000000000000000000000000000000BD
:1003400000000000000000000000000000000000AD
:1003500000033F68B6793528BCC67ED16C800000AA
:1003600000400000000000B26A0000000000000031
:10037000000000000000003FF0000000300000001E
:10038000000000000000000000000000000000006D
:100390000000000000000000000000000000002538
:1003A0004D002F706D000005AE000C02D000000063
:1003B0000000650054FFEF00000000000000000195
:1003C000000044000000000C0000000100000000DC
:1003D000000065000000540000FFEF000000000076
:1003E00000000000000000000000000000400000CD
:1003F00000000000000000000000000000400000BD
:1004000000000000000000000000000000000000EC
:1004100001000000020000000000000000000000D9
:1004200000000000000000000000000000000000CC
:1004300000000000000000000000000000001B00A1
:1004400000000000000000000000000000000000AC
:10045000000000000000000000000000000000009C
:1004600000000000000000000040000000001B0031
:10047000000000000000000000000000000000007C
:10048000000000000000000000000000000000006C
:10049000000000000000000000000000000000005C
:1004A00000000000000000000000000000D8DCBADE
:1004B000A2F1DEB2B8B4A88191F74A907F916AF3B5
:1004C000F9DBA8F9B0BAA080F2CE81F3C2F1C1F293
:1004D000C3F3CCA2B280F1C6D880BAA7DFDFDFF2C7
:1004E000A7C3CBC5B6F087A2942448703C9540685A
:1004F00034589B78A2F183922D557DD8B1B4B8A120
:10050000D09180F270F370F27C80A8F101B09887EE
:10051000D943D886C988BAA1F20EB89780F1A9DF6D
:10052000DFDFAADFDFDFF2AAC5CDC7A90CC92C9790
:10053000979797F1A989264666B0B4BA80ACDEF2E7
:10054000CAF1B28C02A9B69800890E161EB8A9B4D9
:10055000992C547CB08AA896365676F1B9AFB4B0CF
:1005600083C0B8A89711B18F98B9AFF02408441090
:100570006418F1A329557DAF83B593AFF0002850DF
:10058000F1A3869F61A6DADEDFD9FAA38696DB3176
:10059000A6D9F8DFBAA68FC2C5C7B28CC1B8A2DF90
:1005A000DFDFA3DFDFDFD8D8F1B8A8B286B4980DBB
:1005B000355DB8AA98B0872D353DB2B6BAAF8C96E6
:1005C000198F9FA70E161EB49AB8AA872C547CB90F
:1005D000A3DEDFDFA3B180F2C4CDC9F1B8A9B4991D
:1005E000830D355D89B9A32D557DB593A30E161ED8
:1005F000A92C547CB8B4B0F19783A81184A50998AC
:10060000A383F0DA240844106418D8F1A529557D95
:10061000A58595021A2E3A565A4048F9F3A3D9F8FF
:10062000F098832408441064189782A8F111F09878
:10063000A2240844106418DAF3DED883A59401D903
:10064000A302F1A2C3C5C7D8F18492A24DDA2AD879
:100650004869D92AD86855DA32D85071D932D87059
:100660005DDA3AD85879D93AD87893A34DDA2AD8AE
:100670004869D92AD86855DA32D85071D932D87039
:100680005DDA3AD85879D93AD878A88A9AF02850B9
:10069000789EF38818F19F1D98A8D908D8C89F1292
:1006A0009EF315A8DA1210D8F1AFC8978734B5B900
:1006B00094A421F3D922D8F22DF3D92AD8F235F314
:1006C000D932D881A4606061D961D86C6869D96970
:1006D000D8747071D971D8B1A384193D5DA3831A00
:1006E0003E5E931030811011B8B0AF8F94F2DA3EB5
:1006F000D8B49AA88729DAF8D8879A35DAF8D8874B
:100700009A3DDAF8D8B1B9A49885022E56A5810091
:100710000C14A397B08AF12DD928D84DD948D86D9B
:10072000D968D8B1840DDA0ED8A32983DA2C0ED873
:10073000A3844983DA2C4C0ED8B8B0A88A9AF52045
:10074000AADADFD8A840AAD0DADED8A860AADAD020
:10075000DFD8F19786A8319B069907AB9728889B2D
:10076000F00C201440B8B0B4A88C9CF00428517947
:100770001D301438B282ABD0982C505078789BF151
:100780001AB0F08A9CA82951798B2951798A247052
:10079000598B2058718A4469388B3940688A64487B
:1007A000318B304960A5882009715844681139643B
:1007B000493019F1AC002C547CF08CA804285078F6
:1007C000F1889726A85998AC8C02264666F0899C39
:1007D000A8295179247059446938644831A9880995
:1007E000205970AB11384069A8193148608CA83C79
:1007F000415C207C00F187981986A86E767EA999C5
:10080000882D557D9EB9A38A228A6E8A568A5E9F5C
:10081000B183062646660E2E4E6E9DB8AD002C5452
:100820007CF2B18CB499B9A32D557D8191AC38ADD2
:100830003AB58391AC2DD928D84DD948D86DD9680F
:10084000D88C9DAE29D904AED851D904AED879D967
:1008500004D881F39DAD008DAE1981ADD901D8F2D8
:10086000AEDA26D88E912983A7D9ADADADADF32AE6
:10087000D8D8F1B0AC89913E5E76F3AC2E2EF1B1B2
:100880008C5A9CAC2C2828289CAC3018A89881281D
:10089000343C9724A728343C9C24F2B089AC912C9A
:1008A0004C6C8A9B2DD9D8D851D9D8D879D9D8D8D9
:1008B000F19E88A331DAD8D8912DD928D84DD948BE
:1008C000D86DD968D8B18393353D8025DAD8D885DD
:1008D00069DAD8D8B49381A328343CF3AB8BF8A35E
:1008E00091B609B4D9ABDEFAB0879CB9A3DDF1A308
:1008F000A3A3A395F1A3A3A39DF1A3A3A3A3F2A3F1
:10090000B49080F2A3A3A3A3A3A3A3A3A3A3B2A37E
:10091000A3A3A3A3A3B087B599F1A3A3A398F1A31D
:10092000A3A3A397A3A3A3A3F39BA3A3DCB9A7F1BA
:10093000262626D8D8FF00407A10F35A00A0724E1F
:1009400018090010A5D4E80000E87648170000E474
:100950000B54020000CA9A3B000000E1F5050000BC
:1009600080969800000040420F000000A086010021
:100970000000102700000000E803000000006400F1
:10098000000000000A00000000000100000000005C
:100990002C76D888DC674F0823DFC1DFAE59E1B180
:1009A000B796E5E3E453C63AE651997696E8E6C28F
:1009B0008426EB898C9B62ED407C6FFCEFBC9C9F96
:1009C00040F2BAA56FA5F490055A2AF75C936B6CB8
:1009D000F9676DC11BFCE0E40D47FEF520E6B500AC
:1009E000D0ED902E0300943577050080841E08001A
:1009F00000204E0A000000C80C333333330F986ECA
:100A000012831141EF8D2114893BE65516CFFEE686
:100A1000DB18D1844B381BF77C1D901DA4BBE4244C
:100A2000203284725E228100C9F124ECA1E53D27C9
:100A300011241FBECFE5D8E0DEBFCDBF10E0A0E699
:100A4000B0E0E0EFF0E402C005900D92AC36B107E3
:100A5000D9F721E0ACE6B0E001C01D92AD30B2079D
:100A6000E1F70E94AB110C9476200C94000082E018
:100A70008EBD84E089BF1DBC1CBC1092B5001092D5
:100A8000B6001092B7001092B80008951F920F920E
:100A90000FB60F9211248F939F93AF93BF938091C2
:100AA000B5009091B600A091B700B091B800019642
:100AB000A11DB11D8093B5009093B600A093B7001F
:100AC000B093B800BF91AF919F918F910F900FBEDF
:100AD0000F901F9018958091B5009091B600A0914D
:100AE000B700B091B8002CB53DB577276627620FE7
:100AF000731F811D911D28EE33E040E050E00E94FD
:100B0000FB17CA01B9010895AF92BF92DF92EF922D
:100B1000FF920F931F93CF93DF9300D0CDB7DEB733
:100B2000182FD62E80ED49835A830E946E0C812F98
:100B30000E94E90C83E08A95F1F7000081ED0E94A4
:100B40006E0C4981A42E5A81B52E00E010E0ED2CE8
:100B5000F12CE1E0EE1AF1080D1580F40E151F05D9
:100B600019F40E941B0D02C00E94050DF50180833F
:100B70000F5F1F4FFFEFAF1ABF0AEECF0E94DC0CD2
:100B80008D2D0F900F90DF91CF911F910F91FF90BE
:100B9000EF90DF90BF90AF900895EF92FF920F9388
:100BA0001F93CF93DF9300D0CDB7DEB7082F162F5A
:100BB00080ED49835A830E946E0C802F0E94E90CBD
:100BC0004981042FE42E5A81F52E8E2D801B81172A
:100BD00030F4F70181917F010E94E90CF6CF0F906C
:100BE0000F90DF91CF911F910F91FF90EF900C9498
:100BF000DC0C61110C94840580E00895AB0161E088
:100C00000C94840561110C94CD050895CF93DF9366
:100C10001F92CDB7DEB76983AE014F5F5F4F61E0D2
:100C20000E94CD050F90DF91CF9108950F931F93F0
:100C3000CF93DF9300D01F92CDB7DEB7182F062FCA
:100C40001982BE016F5F7F4F2B834A830E94FE058E
:100C50002B814A81882309F1602F70E0641B7109A0
:100C60006F5F7F4FE1E0F0E002C0EE0FFF1F4A959B
:100C7000E2F73197062E01C0EE0F0A94EAF701C0A1
:100C8000220F6A95EAF76E2F609589816823E22327
:100C90006E2B6983812F0E9406060F900F900F9094
:100CA000DF91CF911F910F910895FF920F931F93A2
:100CB000CF93DF9300D0CDB7DEB7F62E8901442362
:100CC00039F1BE016F5F7F4F4A830E94FE054A8162
:100CD0008823F9F06F2D70E0641B71096F5F7F4FFF
:100CE000E1E0F0E002C0EE0FFF1F4A95E2F7319716
:100CF000062E01C0EE0F0A94EAF749814E2350E018
:100D000002C0559547956A95E2F7F801408301C006
:100D100080E00F900F90DF91CF911F910F91FF9086
:100D20000895FF920F931F93CF93DF931F92CDB738
:100D3000DEB7F62E8A01BE016F5F7F4F0E94FE056F
:100D400021E030E001C0220FFA94EAF79981922362
:100D5000F80190830F90DF91CF911F910F91FF9039
:100D6000089541110C94160608950F931F93CF9385
:100D7000DF9300D0CDB7DEB7182F062FBE016F5F0F
:100D80007F4F4A830E94FE0589814A8121E030E03D
:100D9000002E01C0220F0A94EAF7442319F0682FAD
:100DA000622B03C0622F609568236983812F0E94A4
:100DB00006060F900F90DF91CF911F910F9108952C
:100DC000EF92FF920F931F93CF93DF93D82FC62FED
:100DD0008A01662361F180ED0E946E0C8D2F0E94C6
:100DE000E90CD0E0CC0FDD1FF12CEF2DF0E0EC177B
:100DF000FD07ACF4EE24E394EF0CEE0FFF1FE00FC1
:100E0000F11F81810E94E90CF801EE0DF11DEE0D3C
:100E1000F11D80810E94E90CF394F394E6CFDF91F9
:100E2000CF911F910F91FF90EF900C94DC0CDF910C
:100E3000CF911F910F91FF90EF9008958F71411105
:100E4000806261118064682F8DE60C940606682F1D
:100E50008EE60C9406069F92AF92BF92CF92DF92DD
:100E6000EF92FF920F931F93CF93DF937C018B013F
:100E7000A42EB22E642F6F718DE60E9406068B2D74
:100E80000E942707C0E0D0E0C12CDD24D394C01716
:100E9000D10768F5CE0140960817190718F4902E6F
:100EA0009C1A02C020E1922EA92DB0E0F601EB19A8
:100EB000F109EA17FB0714F49B2C9194A7014C0F3E
:100EC0005D1F692D8FE60E94F905C90DD11DB90C72
:100ED000C017D107E0F6B11001C0A3946A2D6F715D
:100EE0008DE60E9406068B2D0E942707D0CFDF914A
:100EF000CF911F910F91FF90EF90DF90CF90BF9017
:100F0000AF909F9008952F923F925F926F927F9241
:100F10008F929F92AF92BF92CF92DF92EF92FF9209
:100F20000F931F93CF93DF933C015B01242E122F6D
:100F3000642F6F718DE60E940606812F0E9427079D
:100F4000002331F080E190E00E94781B6C0102C028
:100F5000C12CD12CEE2039F080E190E00E94781B6A
:100F6000F82E392E02C0F12C312CC0E0D0E0CA1589
:100F7000DB0508F066C0CE014096A816B90618F445
:100F80005A2C5C1A02C040E1542E452D50E080E0FE
:100F900091E0811B91098417950714F4512E519407
:100FA000F301EC0FFD1FEE2059F08F2DAF2DB32D67
:100FB0009A2F981B951530F494919D933196F8CF04
:100FC000FE2E3F2E4F2D532D652D8FE60E940206DB
:100FD000852C912C002311F1C114D104F9F0622D5C
:100FE0006F718DE60E940606812F0E942707A601D9
:100FF000652D8FE60E94F905A401B6018F2D932D72
:101000000E94691D892B51F0C6010E94101CEE2020
:1010100021F18F2D932D0E94101C1FC0C80DD91DCA
:10102000150DCA15DB0508F0A2CF111101C02394DC
:10103000622D6F718DE60E940606812F0E942707A0
:1010400096CF002319F0C6010E94101CEE2039F043
:101050008F2D932D0E94101C02C080E001C081E002
:10106000DF91CF911F910F91FF90EF90DF90CF9084
:10107000BF90AF909F908F907F906F905F903F90C8
:101080002F9008952F923F925F926F927F928F924E
:101090009F92AF92BF92CF92DF92EF92FF920F9307
:1010A0001F93CF93DF9300D0CDB7DEB71C014B0168
:1010B000642E442339F088E090E00E94781B782E5B
:1010C000592E02C0712C512C00E010E008151905B2
:1010D00008F044C0F101E00FF11FC80103966C0154
:1010E0006620A1F04491F8013196E20DF31D2491A0
:1010F000F8013296E20DF31DA490A1103AC00C5FE6
:101100001F4FF101E80FF91F84910BC0408121812D
:10111000A280F101E80FF91FA1100AC00C5F1F4F58
:1011200080818130A1F462E388E30E940606CECF7D
:101130007E2E5F2EB12CE12C01E0B501872D952D7F
:101140000E94830785010C0D1D1D8111BFCF6620F4
:1011500061F0872D952D0E94101C07C0662039F084
:10116000872D952D0E94101C02C080E025C081E0D3
:1011700023C0EA2CF12CF2E0FA1558F4B701872DC0
:10118000952D2A8349830E949F1C782E592E4981D0
:101190002A81072D152DA0E0B0E0C1018C0D9D1D09
:1011A000AE15BF0538F6FC01EA0FFB1F3491F801BC
:1011B00031938F011196F4CF0F900F90DF91CF9163
:1011C0001F910F91FF90EF90DF90CF90BF90AF9065
:1011D0009F908F907F906F905F903F902F90089599
:1011E00049EB50E062E082E70E94F9052091B900E6
:1011F0008091BA0090E0922B0895AC0184E70C94A2
:10120000F90569EB70E08AE30E94FE058091B90060
:10121000089541E062E08AE60C94B50629EB30E0DF
:1012200046E066E080E00E9455068091B90008958E
:10123000282F46E066E080E00C94160629EB30E0AB
:1012400046E066E081E00E9455068091B90008956D
:10125000282F46E066E081E00C94160629EB30E08A
:1012600046E066E082E00E9455068091B90008954C
:10127000282F46E066E082E00C94160640E066E027
:101280008BE60C94B50641E066E08BE60C94B5065F
:1012900029EB30E046E066E085E70E945506909134
:1012A000B90081E0943309F080E008950E946A0C4F
:1012B00083E08A95F1F7000087EA91E60197F1F75C
:1012C00000C000000E943E0983EC99E00197F1F70D
:1012D00000C0000021E043E062E08BE60E941606B9
:1012E00023E043E062E08AE10E94160664E089E1BF
:1012F0000E94060623E042E064E08BE10E941606AD
:1013000020E042E064E08CE10C9416068F929F92FC
:10131000AF92BF92CF92DF92EF92FF920F931F9303
:10132000CF93DF93EC015B016A01490149EB50E087
:101330006EE08BE30E94F9052091B9008091BA001C
:1013400090E0922B998388832091BB008091BC0010
:1013500090E0922BF501918380832091BD008091D4
:10136000BE0090E0922BF601918380832091C10012
:101370008091C20090E0922BF401918380832091B0
:10138000C3008091C40090E0922BF8019183808388
:101390002091C5008091C60090E0922BF7019183C7
:1013A0008083DF91CF911F910F91FF90EF90DF909D
:1013B000CF90BF90AF909F908F9008952F923F92C3
:1013C0004F925F926F927F928F929F92AF92BF9255
:1013D000CF92DF92EF92FF920F931F93CF93DF9301
:1013E000CDB7DEB72C970FB6F894DEBF0FBECDBFDA
:1013F0003C014B015A016901280117011C861B861B
:101400001A86198618861F821E821D821C821B82E4
:101410001A821982CE0101967C018E010D5F1F4F49
:101420009E012B5F3F4FAE01495F5F4FBE01675F7B
:101430007F4F0A960E9486096B857C85882777FDF9
:101440008095982F0E94B61920E030E040E858E3DC
:101450000E949A1AF3016083718382839383698562
:101460007A85882777FD8095982F0E94B61920E00D
:1014700030E040E858E30E949A1AF40160837183D7
:10148000828393836F817885882777FD8095982F55
:101490000E94B61920E030E040E858E30E949A1A12
:1014A000F50160837183828393836D817E81665DA4
:1014B0007F4F882777FD8095982F0E94B61923E3E8
:1014C00033E343E851E40E941B19F6016083718302
:1014D000828393836B817C8169507109882777FDB2
:1014E0008095982F0E94B61923E333E343E851E433
:1014F0000E941B19F2016083718382839383698147
:101500007A81635E7F4F882777FD8095982F0E94B0
:10151000B61923E333E343E851E40E941B19F101B8
:1015200060837183828393832C960FB6F894DEBF19
:101530000FBECDBFDF91CF911F910F91FF90EF9024
:10154000DF90CF90BF90AF909F908F907F906F90E3
:101550005F904F903F902F9008952F923F924F921F
:101560005F926F927F928F929F92AF92BF92CF9233
:10157000DF92EF92FF920F931F93CF93DF93CDB73C
:10158000DEB768970FB6F894DEBF0FBECDBF4C0133
:101590005B011A01280139011D8A1E8A1F8A188ED3
:1015A000198A1A8A1B8A1C8A1D861E861F86188A1B
:1015B00019861A861B861C861D821E821F8218862B
:1015C00019821A821B821C82CE0101967C018E0137
:1015D0000B5F1F4F9E01275F3F4FAE01435F5F4F81
:1015E000BE016F5E7F4F44960E94DE09C301B201C7
:1015F0000E94B41920E030E04AE754E40E941B192D
:101600002B013C01F401808191811AE0189FB00107
:10161000199F700D1124882777FD8095982F0E94BF
:10162000B6196B017C0123EC35EF4CE151E46D8977
:101630007E898F89988D0E949A1AA30192010E9437
:101640009A1A20E030E040E251E40E949A1A9B018D
:10165000AC01C701B6010E943E180E948319F40133
:1016600071836083F50180819181189FB001199F7A
:10167000700D1124882777FD8095982F0E94B61948
:101680006B017C0123EC35EF4CE151E469897A89E7
:101690008B899C890E949A1AA30192010E949A1A2E
:1016A00020E030E040E251E40E949A1A9B01AC0134
:1016B000C701B6010E943E180E948319F50171838B
:1016C0006083F10180819181189FB001199F700D95
:1016D0001124882777FD8095982F0E94B6194B0119
:1016E0005C0120E030E040E85FE36D857E858F851A
:1016F00098890E943D1823EC35EF4CE151E40E949B
:101700009A1AA30192010E949A1A20E030E040E266
:1017100051E40E949A1A9B01AC01C501B4010E94D8
:101720003E180E948319F1017183608368960FB699
:10173000F894DEBF0FBECDBFDF91CF911F910F9107
:10174000FF90EF90DF90CF90BF90AF909F908F90E1
:101750007F906F905F904F903F902F9008951F92D1
:101760000F920FB60F9211242F938F939F93EF93A5
:10177000FF938BB19CB18871E0916E00EF5FEF71C8
:1017800020916D00E21739F0E0936E00F0E0EF5821
:10179000FF4F908301C082E080936C00FF91EF9136
:1017A0009F918F912F910F900FBE0F901F901895C2
:1017B0001F920F920FB60F9211248F939F93EF9366
:1017C000FF939091700080916F00981761F0E09105
:1017D0006F00EF5FEF71E0936F00F0E0EF56FF4FA7
:1017E00080818CB901C05598FF91EF919F918F91A5
:1017F0000F900FBE0F901F901895109270001092CE
:101800006F0010926E0010926D0097FF03C022E0EF
:101810002BB99F7790BD89B988E98AB986E880BDE0
:10182000089590916E0080916D00981791F0E0916D
:101830006D00EF5FEF71E0936D00F0E0EF58FF4F48
:10184000208180916C0090E0982F8827820F911D55
:10185000089580E091E00895909170009F5F9F71DE
:1018600020916F009217E1F3E92FF0E0EF56FF4F60
:10187000808390937000559A0895CF93DF93EC0185
:101880008991882319F00E942C0CFACFDF91CF9117
:101890000895CF93DF93FC018491EF012196882373
:1018A00021F00E942C0CFE01F7CFDF91CF9108951B
:1018B00080916E0020916D0090E04F96821B9109FF
:1018C0006FE170E00E94E717089580916D008093AA
:1018D0006E00089511B88CE080B9089594EA96BF1F
:1018E0004FEF50E060E070E006B607FC06C04150E4
:1018F000510961097109C0F706C0452B462B472BDA
:1019000011F481E0089591B1987F983011F09031F1
:10191000C1F783B984E886BF8FEF90E0A0E0B0E024
:1019200006B607FC05C00197A109B109C8F704C0B4
:10193000892B8A2B8B2B29F381B1887F883111F079
:101940008034F9F680E0089544EA54E864E946BF3B
:1019500020E030E006B607FC06C02F5F3F4F2115A0
:1019600091E03907B9F791B1987F983011F0903133
:1019700071F783B956BF20E030E006B607FC06C019
:101980002F5F3F4F211591E03907B9F791B1987F4B
:10199000903211F0983569F466BF20E030E006B669
:1019A00004FED5CF2F5F3F4F211591E03907B9F7DE
:1019B000CECF08950C946E0C84E986BF80E090E051
:1019C00006B604FE05C00196811521E09207C1F715
:1019D000089583B984E886BF8FEF90E0A0E0B0E07F
:1019E00006B607FC05C00197A109B109C8F704C0F4
:1019F000892B8A2B8B2B39F091B1987F81E098321B
:101A000019F480E0089581E0089584EC86BF8FEF9B
:101A100090E0A0E0B0E006B607FC05C00197A10980
:101A2000B109C8F704C0892B8A2B8B2B11F083B125
:101A3000089580E0089584E886BF8FEF90E0A0E0ED
:101A4000B0E006B607FC05C00197A109B109C8F7C7
:101A500004C0892B8A2B8B2B11F083B1089580E071
:101A600008958BB780648BBF41E067E08AE60C94F1
:101A7000B5068BB78F7B8BBF40E067E08AE60C949E
:101A8000B506CF92DF92EF920F931F93CF93DF9320
:101A9000CDB7DEB7C059D1090FB6F894DEBF0FBE7F
:101AA000CDBF85B7836085BF41E067E08BE60E94CC
:101AB000B5068BE49DE10197F1F700C000000E949C
:101AC0003E0940E060E080E00E941E070E940E098F
:101AD000D82E0E941E09182F0E942E096FE785E25A
:101AE0000E94060640E065E08AE60E94B50668E6C8
:101AF00085E20E94060641E061E08AE60E94B506A2
:101B000087E893E10197F1F700C00000EE24E39429
:101B100001E020E040E069E877E08DEA91E00E9492
:101B20008307813009F002C241E060EC70E08DEE85
:101B300090E00E944208882309F4FAC123E043E0C0
:101B400062E08BE60E94B10662E188E30E9406062D
:101B500064E089E10E94060621E043E065E08AE155
:101B60000E94B10623E043E062E08AE10E94B106F0
:101B700023E042E064E08BE10E94B10663E080E78D
:101B80000E94060660E081E70E94060640E060E0F1
:101B900080E00E94B5068D2D0E941809812F0E94B9
:101BA00028098AE50E94380940E050E061E083E1BD
:101BB0000E94E00640E050E061E085E10E94E0061E
:101BC00040E050E061E087E10E94E006C12CD12CAA
:101BD000F601E254FF4FE491A1E8B0E0AC0FBD1F65
:101BE000AC0DB11DEC9381E08C0D9FEFC91AD90AA1
:101BF00093E09C1568F7CD57DF4F6881C358D040FC
:101C000070E09B012E5F3F4F90E02817390704F7E3
:101C1000E12C01E0CE57DF4F2881C258D040CF578A
:101C2000DF4F4881C158D04081E890E08C0F9D1F64
:101C300003960E94830740E0F601E254FF4FE491CF
:101C4000A1E8B0E0AC0FBD1FA40FB11DEC934F5F36
:101C50008FEFC81AD80A443078F3CD57DF4F688128
:101C6000C358D04070E09B012E5F3F4F842F90E01F
:101C7000281739070CF7E12C01E0CE57DF4F2881F8
:101C8000C258D040CF57DF4F4881C158D04081E87B
:101C900090E08C0F9D1F03960E94830721E041E096
:101CA00062E08AE60E94B1060E94F008AE014F5F32
:101CB0005F4F682F84E70E94F90562E08FE10E9480
:101CC00006066CE981E20E94060660E580E20E9459
:101CD000060660E082E20E94060641E062E08AE6D3
:101CE0000E94B50641E066E08AE60E94B5060E94C1
:101CF000310D41E063E08AE60E94B5060E94F008DB
:101D0000182F8330D8F340E0F601E254FF4FE491FE
:101D1000A1E8B0E0AC0FBD1FA40FB11DEC934F5F65
:101D20009FEFC91AD90A443078F3CD57DF4F688145
:101D3000C358D04070E09B012E5F3F4F842F90E04E
:101D4000281739070CF7E12C01E0CE57DF4F288127
:101D5000C258D040CF57DF4F4881C158D04081E8AA
:101D600090E08C0F9D1F03960E94830740E0F601D0
:101D7000E254FF4FE491A1E8B0E0AC0FBD1FA40F07
:101D8000B11DEC934F5F8FEFC81AD80A443078F337
:101D9000CD57DF4F6881C358D04070E09B012E5F64
:101DA0003F4F842F90E0281739070CF7E12C01E012
:101DB000CE57DF4F2881C258D040CF57DF4F4881E0
:101DC000C158D04081E890E08C0F9D1F03960E947F
:101DD000830780E0F601E254FF4FE491A1E8B0E010
:101DE000AC0FBD1FA80FB11DEC938F5F9FEFC91AF9
:101DF000D90A843078F3CD57DF4F6881C358D0407B
:101E000070E0AB014E5F5F4F282F30E04217530761
:101E10000CF7E12C01E0CE57DF4F2881C258D040AB
:101E2000CF57DF4F4881C158D04081E890E08C0FF8
:101E30009D1F03960E948307612FCE0101960E9489
:101E4000FD0840E0F601E254FF4FE491A1E8B0E064
:101E5000AC0FBD1FA40FB11DEC934F5F8FEFC81ADD
:101E6000D80A443078F3CD57DF4F6881C358D0404B
:101E700070E09B012E5F3F4F842F90E028173907B9
:101E80000CF7CE57DF4F2881C258D040CF57DF4FD5
:101E90004881C158D04081E890E08C0F9D1F039687
:101EA0000E942B070E94F0088330E0F3682FCE01D8
:101EB00001960E94FD08F601E254FF4F40E0849134
:101EC000A1E8B0E0AC0FBD1FA40FB11D8C934F5F14
:101ED000443010F43196F3CFCD57DF4F6881C358AB
:101EE000D04070E09B012E5F3F4F842F90E0281779
:101EF000390784F7E12C01E0CE57DF4F2881C25823
:101F0000D040CF57DF4F4881C158D04081E890E0A2
:101F10008C0F9D1F03960E9483070E94390D41E09C
:101F200062E08AE60E94B50680E003C081E001C05D
:101F300082E0C057DF4F0FB6F894DEBF0FBECDBFB3
:101F4000DF91CF911F910F91EF90DF90CF90089587
:101F5000AF92BF92CF92DF92EF92FF920F931F93B7
:101F6000CF93DF93EC015B016A017901009721F4C3
:101F7000C091C700D091C800688170E0762F6627B5
:101F80008981680F711D882777FD8095982F0E94A1
:101F9000B61920E030E040E858E30E949A1AF501B3
:101FA00060837183828393836C8170E0762F6627D0
:101FB0008D81680F711D882777FD8095982F0E946D
:101FC000B61920E030E040E858E30E949A1AF60182
:101FD0006083718382839383688570E0762F6627A0
:101FE0008985680F711D882777FD8095982F0E943D
:101FF000B61920E030E040E858E30E949A1AF70151
:1020000060837183828393836C8570E0762F66276B
:102010008D85680F711D882777FD8095982F0E9408
:10202000B61920E030E040E858E30E949A1AF8011F
:102030006083718382839383DF91CF911F910F918E
:10204000FF90EF90DF90CF90BF90AF9008954F92A8
:102050005F926F927F928F929F92AF92BF92CF9238
:10206000DF92EF92FF920F931F93CF93DF93CDB741
:10207000DEB760970FB6F894DEBF0FBECDBF2987DD
:102080003A874B875C87270138019B01AC010E948E
:102090003E186D877E878F87988B20E030E040E088
:1020A00050ECC601B5010E949A1AA60195010E9442
:1020B0009A1A69837A838B839C8320E030E040E026
:1020C00050ECC301B2010E949A1AA30192010E942E
:1020D0009A1A9B01AC0169817A818B819C810E9453
:1020E0003E1820E030E040E85FE30E943E1869833C
:1020F0007A838B839C8329853A854B855C85CA01CD
:10210000B9010E943E18A30192010E949A1A6D83A0
:102110007E838F839887A60195016D857E858F8547
:1021200098890E949A1A9B01AC016D817E818F81F2
:1021300098850E943E1829813A814B815C810E94DA
:10214000C818EDA1FEA1608371838283938320E090
:1021500030E040E050EC69857A858B859C850E9453
:102160009A1A69837A838B839C83A60195010E94C6
:102170009A1A6D837E838F839887A30192016D8560
:102180007E858F8598890E949A1A9B01AC016D818A
:102190007E818F8198850E943E180E94A218EBA133
:1021A000FCA16083718382839383A3019201C301A5
:1021B000B2010E943E186D837E838F8398872985A4
:1021C0003A854B855C8569817A818B819C810E94EF
:1021D0009A1A69837A838B839C83A30192016D8110
:1021E0007E818F8198850E949A1A9B01AC0169813A
:1021F0007A818B819C810E943D1820E030E040E88C
:102200005FE30E943E182B013C01A60195016D8100
:102210007E818F8198850E949A1A6B017C012985A5
:102220003A854B855C856D857E858F8598890E9472
:102230009A1A9B01AC01C701B6010E943E18A30186
:1022400092010E94C818F401608371838283938392
:1022500060960FB6F894DEBF0FBECDBFDF91CF9171
:102260001F910F91FF90EF90DF90CF90BF90AF90B4
:102270009F908F907F906F905F904F900895CF9236
:10228000DF92EF92FF920F931F93CF93DF93EC01B6
:102290007B016A0189018091B2009091B300209185
:1022A000B400211103C08A329105C8F31092B40022
:1022B0000E9401098093B1000E94F0089093B3003E
:1022C0008093B2002091B10024FD03C08115944099
:1022D00019F40E94090926C021FF24C08091B20090
:1022E0009091B3008A9738F40E94F0089093B3005D
:1022F0008093B200F3CF6AE289EC90E00E94FD087F
:10230000E091B200F091B300BA97F093B300E0937C
:10231000B2009601A701BE0189EC90E00E94A80FCF
:1023200081E001C080E0DF91CF911F910F91FF907C
:10233000EF90DF90CF9008951F920F920FB60F92FB
:1023400011248F9381E08093B4008F910F900FBE82
:102350000F901F901895CF93DF93CDB7DEB7CC5574
:10236000D1090FB6F894DEBF0FBECDBF1ABA8FEFFA
:1023700087BB18BA80E090E0A0E8BFE38BA39CA3E2
:10238000ADA3BEA31F8E18A219A21AA21B8E1C8E6B
:102390001D8E1E8E1F8A188E198E1A8E1B8A1C8AFD
:1023A0001D8A1E8A1F86188A198A1A8A1B861C860D
:1023B0001D861E8683E390E00E94FD0B78940E94A8
:1023C00056092FE738E361E0215030406040E1F7E3
:1023D00000C000000E94410D0E94310D8FE19EE47B
:1023E0000197F1F700C000000E9437051CA61BA64C
:1023F000612C712C212C312C18AE1FAA1EAA1DAAEB
:102400001CAA1BAA18AA1FA62A961FAE1EAE2A97A0
:1024100026961FAE1EAE269728961FAE1EAE289794
:10242000412C512C1EAE1DAE1EA61DA62E961FAE13
:102430002E972F961FAE2F9760961FAE60976196CE
:102440001FAE619724961FAE24972B961FAE2B9735
:102450002C961FAE2C972D961FAE2D971AAE1CAE44
:102460001FAE22961FAE22976A961FAE6A976B9692
:102470001FAE6B976C961FAE6C976D961FAE6D97E7
:1024800066961FAE669767961FAE679768961FAEF3
:10249000689769961FAE699762961FAE62976396BA
:1024A0001FAE639764961FAE649765961FAE6597DF
:1024B000FE013B96F8A7EFA39E01215F3F4F3AA78D
:1024C00029A79E01295E3F4FAE01455E5F4FBE01C9
:1024D000615E7F4FCE0183960E943F11882309F1F0
:1024E000AF88B88CC98CDA8CEB8CFC8C0D8D1E8D72
:1024F0002F8D38A149A15AA16BA17CA18DA19EA1CC
:10250000E8A5EF93FFA1FF93EAA5EF93F9A5FF9349
:10251000FE0173964F010E9427100F900F900F90AD
:102520000F908FE19EE40197F1F700C0000020E0DA
:1025300030E044E353E46B897C898D899E890E9455
:102540009A1A20ED3FE049E450E40E941B195B0118
:102550006C0120E030E044E353E46F857889898999
:102560009A890E949A1A20ED3FE049E450E40E94C3
:102570001B197B018C0120E030E044E353E46B85C0
:102580007C858D859E850E949A1A20ED3FE049E466
:1025900050E40E941B1969AB7AAB4C010E946B0599
:1025A000EDA5FEA5EF2B69F560387E438105910509
:1025B00008F487CF39A96A963FAF6A976AA96B96E4
:1025C0006FAF6B976C968FAE6C976D969FAE6D9755
:1025D0006696EFAE66976796FFAE679768960FAF01
:1025E000689769961FAF69976296AFAE62976396D8
:1025F000BFAE63976496CFAE64976596DFAE65977E
:10260000D3C46A962FAD6A976B963FAD6B976C9665
:102610004FAD6C976D965FAD6D9769A97AA9C401AE
:102620000E943D18962E872E8AAB99AF262F372F02
:10263000AC012E966FAD2E972F967FAD2F9760969B
:102640008FAD609761969FAD61970E943D180E9483
:1026500083199B0177FF04C022273327261B370BE2
:10266000213531050CF011C362962FAD6297639648
:102670003FAD639764964FAD649765965FAD659780
:10268000B501C6010E943D186B018DA799AB9B0156
:10269000AC016AAD7CAD8FAD22969FAD22970E94B2
:1026A0003D180E9483199B0177FF04C0222733271E
:1026B000261B370B213531052CF021E030E03EA7F9
:1026C0002DA7FFCE66962FAD669767963FAD6797AD
:1026D00068964FAD689769965FAD6997B701C80175
:1026E0000E943D185B017C019B01AC0124966FADFB
:1026F00024972B967FAD2B972C968FAD2C972D96EC
:102700009FAD2D970E943D180E9483199B0177FF72
:1027100004C022273327261B370B213531052CF027
:1027200061E070E07EA76DA7CCCE18BA98B389B3EC
:10273000892B88BB29B321702CAF89B38695817012
:1027400024968FAF2497CA9B15C06DAD7EAD672BC5
:10275000B1F40E946B0528967FAF6EAF289781E099
:1027600090E021969FAF8EAF2197E1E0F0E0FEAFC1
:10277000EDAF0FC021961FAE1EAE21970AC021E01B
:1027800030E021963FAF2EAF219761E070E07EAF41
:102790006DAFCB9B16C08DAD9EAD019791F4B2018C
:1027A00088EE93E00E94C31D2A965FAE4EAE2A9734
:1027B000E1E0F0E0FBAFEAAF412C512C1EAE1DAEC4
:1027C00002C01BAE1AAECC9B54C026962EAD3FADB8
:1027D0002697232B31F40E946B0528967FAF6EAFAE
:1027E000289788EE93E00E94AC1D2A969FAF8EAF8B
:1027F0002A9780E090E00E94A41D682F772767FD4C
:1028000070957CAB6BAB81E090E00E94A41DE82F3B
:10281000FF27E7FDF095FEABEDAB82E090E00E9474
:10282000A41D282F332727FD309538AF2FABB601D5
:102830008DA599A90E9483191B01B501C7010E94AA
:1028400083193B01692D782D8AA999AD0E948319BE
:102850007CA76BA761E070E023967FAF6EAF2397F4
:1028600018AA1FA681E090E026969FAF8EAF26970C
:1028700004C023961FAE1EAE2397CD9B1EC0269686
:10288000EEADFFAD26973197C1F4B6018DA599A99C
:102890000E9483197CAB6BABB501C7010E94831901
:1028A0007EAB6DAB692D782D8AA999AD0E948319F5
:1028B00078AF6FAB1EAE1DAE1BC22DAD3EAD21304D
:1028C000310509F061C00E946B0524E630E040E06C
:1028D00050E00E94FB1728966EAD7FAD2897CB0184
:1028E000AA2797FDA095BA2F281B390B4A0B5B0B23
:1028F000233031054105510588F1B6018DA599A90F
:102900000E948819C2010E94B21DB501C7010E9430
:102910008819C20101960E94B21D692D782D8AA9DD
:1029200099AD0E948819C20102960E94B21D8CAD19
:10293000880F682F660F660F680F24967FAD249767
:10294000670FC20103960E94B21D84E0480E511C1D
:102950000E946B0528967FAF6EAF289795E84916C1
:1029600093E059068CF0B20188EE93E00E94C31DFB
:102970002A965FAE4EAE2A97E1E0F0E0FBAFEAAFF9
:10298000412C512C1EAE1DAE26962EAD3FAD269786
:102990002130310509F07EC16FA578A9672B09F0B8
:1029A0009DC08BA99CA92816390624F49FEF291AEB
:1029B000390A08C0EBA9FCA9E215F3051CF4F1E003
:1029C0002F1A31082DA93EA96216730624F43FEF91
:1029D000631A730A08C06DA97EA9661577051CF4F1
:1029E00071E0671A71088FA998ADEBA5FCA5E817EF
:1029F000F90724F43196FCA7EBA70BC02FA938AD3B
:102A00006BA57CA52617370724F4615071097CA7B4
:102A10006BA74AE0BE016F5F7F4FC1010E947F1D1F
:102A2000CE0101960E943D0C86E690E00E943D0C8E
:102A30004AE0BE016F5F7F4FC3010E947F1DCE0140
:102A400001960E943D0C86E690E00E943D0C4AE013
:102A5000BE016F5F7F4F8BA59CA50E947F1DCE019D
:102A600001960E943D0C86E690E00E943D0C88E6AF
:102A700090E00E943D0C88E690E00E943D0C88E6C4
:102A800090E00E943D0C88E690E00E943D0C88E6B4
:102A900090E00E943D0C8AE690E00E943D0C8DA9DA
:102AA0009EA9861997090196039708F0CCC08BA9B7
:102AB0009CA9821993090196039708F0C4C08FA9B5
:102AC00098ADEBA5FCA58E1B9F0B019631E020E095
:102AD000039708F030E03FA728ABB5C02FA538A971
:102AE0002130310509F0AFC00E946B0524E630E0CB
:102AF00040E050E00E94FB1728966EAD7FAD28970E
:102B0000CB01AA2797FDA095BA2F281B390B4A0B9A
:102B10005B0B233031054105510508F494C0C20117
:102B20000E94A41D282E332427FC30944AE0BE01C5
:102B30006F5F7F4FC1010E947F1DCE0101960E94F1
:102B40003D0C86E690E00E943D0CC20101960E9479
:102B5000A41D682E772467FC70944AE0BE016F5F65
:102B60007F4FC3010E947F1DCE0101960E943D0C44
:102B700086E690E00E943D0CC20102960E94A41DD0
:102B8000E82FFF27E7FDF095FCA7EBA74AE0BE0181
:102B90006F5F7F4FCF010E947F1DCE0101960E9483
:102BA0003D0C86E690E00E943D0CC20103960E9417
:102BB000A41D82010C5F1F4F6AE00E94D917592E95
:102BC0004AE0BE016F5F7F4F992787FD90950E9475
:102BD0007F1DCE0101960E943D0C4AE0BE016F5F51
:102BE0007F4F852D992787FD90950E947F1DCE01EF
:102BF00001960E943D0C88E690E00E943D0C88E61C
:102C000090E00E943D0C88E690E00E943D0C8AE630
:102C100090E00E943D0C91E080E02A962EAD3FAD01
:102C20002A97021713070CF090E09FA788ABC80102
:102C30002A966EAD7FAD2A970E94E7172C01009768
:102C400011F418AA1FA62E969FAE2E972F968FAE20
:102C50002F973AA960963FAF609769AD61966FAFC5
:102C600061972496AFAE24972B96BFAE2B972C96E8
:102C7000EFAE2C972D96FFAE2D97CAAEDCAE7DA59C
:102C80007FAF89A922968FAF2297E1E0F0E0FEA7FF
:102C9000EDA717CC26962EAD3FAD2697232B19F125
:102CA0002E969FAE2E972F968FAE2F977AA960966D
:102CB0007FAF609789AD61968FAF61972496AFAE75
:102CC00024972B96BFAE2B972C96EFAE2C972D9674
:102CD000FFAE2D97CAAEDCAE9DA59FAFE9A92296A7
:102CE000EFAF2297EACC6FA578A9672B09F0B3C0A4
:102CF0008BA99CA92816390624F49FEF291A390AB2
:102D000008C0EBA9FCA9E215F3051CF4F1E02F1AA9
:102D100031082DA93EA96216730624F43FEF631A09
:102D2000730A08C06DA97EA9661577051CF471E0C9
:102D3000671A71088FA998ADEBA5FCA5E817F907EC
:102D400024F43196FCA7EBA70BC02FA938AD6BA5D7
:102D50007CA52617370724F4615071097CA76BA75F
:102D60004AE0BE016F5F7F4FC1010E947F1DCE010F
:102D700001960E943D0C86E690E00E943D0C4AE0E0
:102D8000BE016F5F7F4FC3010E947F1DCE01019680
:102D90000E943D0C86E690E00E943D0C4AE0BE0198
:102DA0006F5F7F4F8BA59CA50E947F1DCE01019672
:102DB0000E943D0C86E690E00E943D0C88E690E083
:102DC0000E943D0C88E690E00E943D0C88E690E071
:102DD0000E943D0C88E690E00E943D0C88E690E061
:102DE0000E943D0C8AE690E00E943D0C8DA99EA9B0
:102DF0008619970901960397B0F48BA99CA98219AB
:102E000093090196039778F48FA998ADEBA5FCA5DB
:102E10008E1B9F0B019631E020E0039708F030E015
:102E20003FA728AB02C018AA1FA6B6018DA599A975
:102E30000E9483197CAB6BABB501C7010E9483195B
:102E40007EAB6DAB692D782D8AA999AD0E9483194F
:102E500078AF6FAB83C08E010F5F1F4F20E043E060
:102E6000B6018DA599A90E94571BC8010E943D0C6F
:102E700086E690E00E943D0C20E043E0B501C701EA
:102E80000E94571BC8010E943D0C86E690E00E94FC
:102E90003D0C20E043E0692D782D8AA999AD0E9470
:102EA000571BC8010E943D0C86E690E00E943D0C35
:102EB000FCAD6F2F70E080E090E00E94B61920E03A
:102EC00043E00E94571BC8010E943D0C24962FAD81
:102ED0002497622F70E080E090E00E94B61920E015
:102EE00043E00E94571BC8010E943D0C2196EEADA5
:102EF000FFAD2197BF01882777FD8095982F0E940D
:102F0000B61920E043E00E94571BC8010E943D0C07
:102F10002AAD3BADB901882777FD8095982F0E9497
:102F2000B61920E043E00E94571BC8010E943D0CE7
:102F30002396EEADFFAD2397BF01882777FD8095DF
:102F4000982F0E94B61920E043E00E94571BC80149
:102F50000E943D0C8AE690E00E943D0C2E969FAEAA
:102F60002E972F968FAE2F97FAA96096FFAF609796
:102F700029AD61962FAF61972496AFAE24972B961B
:102F8000BFAE2B972C96EFAE2C972D96FFAE2D97BC
:102F9000CAAEDCAE3DA53FAF69A922966FAF2297BE
:102FA00026961FAE1EAE269781E090E09EA78DA7C5
:102FB00088CA87FB082E062687FD819567FD6195E7
:102FC0000E941D180EF4919507FC8195089597FBBA
:102FD000072E16F4009407D077FD09D00E94291817
:102FE00007FC05D03EF4909581959F4F089570950C
:102FF00061957F4F0895A1E21A2EAA1BBB1BFD010C
:103000000DC0AA1FBB1FEE1FFF1FA217B307E407C7
:10301000F50720F0A21BB30BE40BF50B661F771F1F
:10302000881F991F1A9469F76095709580959095FF
:103030009B01AC01BD01CF010895991B79E004C04B
:10304000991F961708F0961B881F7A95C9F78095E7
:103050000895AA1BBB1B51E107C0AA1FBB1FA617DF
:10306000B70710F0A61BB70B881F991F5A95A9F731
:1030700080959095BC01CD0108955058BB27AA2793
:103080000ED017C208D230F00DD220F031F49F3F9D
:1030900011F41EF4C7C10EF4E095E7FBBDC1E92FA2
:1030A00019D280F3BA17620773078407950718F0DF
:1030B00071F49EF531C20EF4E0950B2EBA2FA02DBF
:1030C0000B01B90190010C01CA01A0011124FF27D5
:1030D000591B99F0593F50F4503E68F11A16F040D0
:1030E000A22F232F342F4427585FF3CF46953795CF
:1030F0002795A795F0405395C9F77EF41F16BA0B94
:10310000620B730B840BBAF09150A1F0FF0FBB1F41
:10311000661F771F881FC2F70EC0BA0F621F731F8A
:10312000841F48F4879577956795B795F7959E3FE7
:1031300008F0B3CF9395880F08F09927EE0F979575
:10314000879508959F939F77EEE389379E0720F434
:10315000E4E5F0E08FD109C044D19058A2EA2AED0D
:103160003FE049EC5FE39BDFA4D10F9007FC905850
:10317000089591D158F080E891E009F49EEF92D142
:1031800028F040E851E059F45EEF09C04BC1C4C1DA
:10319000E92FE0789FD168F3092E052AC1F326179D
:1031A00037074807590738F00E2E07F8E02569F071
:1031B000E025E0640AC0EF6307F8009407FADB013A
:1031C000B9019D01DC01CA01AD01EF9343D071D17A
:1031D0000AD05F91552331F02BED3FE049E450FDDB
:1031E00049EC4CCF0895DF93DD27B92FBF7740E836
:1031F0005FE31616170648075B0710F4D92F93D123
:103200009F938F937F936F933AD2E8E6F0E00DD1CE
:1032100050D12F913F914F915F9198D1DD2349F08B
:103220009058A2EA2AED3FE049EC5FE3D0785D27B1
:1032300036DFDF913EC10CD03CC134D140F02BD100
:1032400030F021F45F3F19F0E7C0511166C1EAC0C8
:1032500041D198F39923C9F35523B1F3951B550B2D
:10326000BB27AA2762177307840738F09F5F5F4F59
:10327000220F331F441FAA1FA9F333D00E2E3AF09A
:10328000E0E830D091505040E695001CCAF729D0B4
:10329000FE2F27D0660F771F881FBB1F2617370703
:1032A0004807AB07B0E809F0BB0B802DBF01FF2733
:1032B00093585F4F2AF09E3F510568F0ADC02DC175
:1032C0005F3FECF3983EDCF3869577956795B7956D
:1032D000F7959F5FC9F7880F911D9695879597F988
:1032E0000895E1E0660F771F881FBB1F6217730701
:1032F0008407BA0720F0621B730B840BBA0BEE1F16
:1033000088F7E095089504D06894B11106C1089536
:10331000E9D088F09F5790F0B92F9927B751A0F0C6
:10332000D1F0660F771F881F991F1AF0BA95C9F759
:1033300012C0B13081F0F0D0B1E00895EDC0672F38
:10334000782F8827B85F39F0B93FCCF38695779509
:103350006795B395D9F73EF49095809570956195F2
:103360007F4F8F4F9F4F0895E89409C097FB3EF41D
:1033700090958095709561957F4F8F4F9F4F9923C2
:10338000A9F0F92F96E9BB279395F6958795779540
:103390006795B795F111F8CFFAF4BB0F11F460FF00
:1033A0001BC06F5F7F4F8F4F9F4F16C0882311F058
:1033B00096E911C0772321F09EE8872F762F05C06C
:1033C000662371F096E8862F70E060E02AF09A9507
:1033D000660F771F881FDAF7880F9695879597F9FC
:1033E0000895DF93CF931F930F938B01EC01E5E9D1
:1033F000F0E01BD05ED09801AE018B01EC0160E0E3
:1034000070E080E89FE339DEFCD09801AE010F91B7
:103410001F91CF91DF919AC097F99F6780E870E084
:1034200060E008959FEF80EC0895DF93CF931F93A2
:103430000F93FF92EF92DF927B018C01689405C09D
:10344000DA2EEF0183D0FE01E894A5912591359104
:1034500045915591AEF3EF0122DEFE019701A801DF
:10346000DA9479F7DF90EF90FF900F911F91CF9151
:10347000DF9108959F938F937F936F93FF93EF93C3
:103480009B01AC0157D0EF91FF91CFDF2F913F917E
:103490004F915F914FC000240A9416161706180624
:1034A0000906089500240A94121613061406050648
:1034B0000895092E0394000C11F4882352F0BB0FD9
:1034C00040F4BF2B11F460FF04C06F5F7F4F8F4F3C
:1034D0009F4F089557FD9058440F551F59F05F3F77
:1034E00071F04795880F97FB991F61F09F3F79F026
:1034F00087950895121613061406551FF2CF4695A8
:10350000F1DF08C0161617061806991FF1CF869529
:103510007105610508940895E894BB27662777270D
:10352000CB0197F908959B01AC0160E070E080E861
:103530009FE381CE0BD0BDCFAEDF28F0B3DF18F014
:10354000952309F069CF6ECF1124E7CFC3DFA0F335
:10355000959FD1F3950F50E0551F629FF001729F28
:10356000BB27F00DB11D639FAA27F00DB11DAA1F47
:10357000649F6627B00DA11D661F829F2227B00D94
:10358000A11D621F739FB00DA11D621F839FA00D1F
:10359000611D221F749F3327A00D611D231F849F6F
:1035A000600D211D822F762F6A2F11249F575040C6
:1035B0008AF0E1F088234AF0EE0FFF1FBB1F661F61
:1035C000771F881F91505040A9F79E3F510570F01A
:1035D00023CFA3CF5F3FECF3983EDCF3869577953E
:1035E0006795B795F795E7959F5FC1F7FE2B880F15
:1035F000911D9695879597F9089511F40EF412CFC1
:1036000041C070DFD0F39923D9F3CEF39F57550B08
:1036100087FF46D00024A0E640EA900180585695E6
:10362000979528F4805C660F771F881F20F0261777
:103630003707480730F4621B730B840B20293129AC
:103640004A2BA69517940794202531254A2758F729
:10365000660F771F881F20F026173707480730F4BA
:10366000620B730B840B200D311D411DA09581F75A
:10367000B901842F9158880F9695879508959B01DD
:10368000AC0158CF9F3F31F0915020F4879577954A
:103690006795B795880F911D9695879597F9089529
:1036A00091505040660F771F881FD2F70895EF9210
:1036B0000F931F93CF93DF93E80147FF02C034E1DC
:1036C00001C034E0E42FFF27E7FDF095F7FF03C0CA
:1036D000F195E195F109E32E022F2E2FAE010E9404
:1036E000C91DCE01DF91CF911F910F91EF900895E9
:1036F000CF93DF938230910510F482E090E0E09167
:103700000B01F0910C0120E030E0A0E0B0E0309738
:1037100039F14081518148175907B8F048175907C6
:1037200071F482819381109729F013969C938E9364
:1037300012972CC090930C0180930B0127C0211588
:10374000310531F04217530718F0A901DB0101C020
:10375000EF019A01BD01DF010280F381E02DD7CF97
:1037600021153105F9F0281B390B2430310580F47F
:103770008A819B816115710521F0FB01938382830E
:1037800004C090930C0180930B01FE01329644C05B
:10379000FE01E20FF31F8193919322503109398387
:1037A00028833AC02091090130910A01232B41F46A
:1037B000209162003091630030930A012093090147
:1037C00020916000309161002115310541F42DB741
:1037D0003EB74091640050916500241B350BE09189
:1037E0000901F0910A01E217F307A0F42E1B3F0B29
:1037F0002817390778F0AC014E5F5F4F2417350763
:1038000048F04E0F5F1F50930A01409309018193C6
:10381000919302C0E0E0F0E0CF01DF91CF910895F5
:10382000CF93DF93009709F487C0FC01329713828E
:103830001282C0910B01D0910C01209781F420815C
:103840003181280F391F8091090190910A01821757
:10385000930779F5F0930A01E09309016DC0DE0149
:1038600020E030E0AE17BF0750F412964D915C9106
:1038700013979D014115510509F1DA01F3CFB38387
:10388000A28340815181840F951F8A179B0771F491
:103890008D919C911197840F951F0296918380833F
:1038A00012968D919C9113979383828321153105F4
:1038B00029F4F0930C01E0930B013EC0D90113965B
:1038C000FC93EE9312974D915D91A40FB51FEA17EB
:1038D000FB0779F480819181840F951F0296D901AD
:1038E00011969C938E938281938113969C938E93D1
:1038F0001297E0E0F0E08A819B81009719F0FE01C9
:10390000EC01F9CFCE01029628813981820F931FF5
:103910002091090130910A012817390769F430977D
:1039200029F410920C0110920B0102C01382128232
:10393000D0930A01C0930901DF91CF910895A0E0CF
:10394000B0E0E5EAFCE10C944320EC01CB012097C8
:1039500019F40E94781BB8C0FE01E60FF71F9E0104
:1039600022503109E217F30708F4ACC0D9010D91D8
:103970001C91119706171707B8F00530110508F4C8
:103980009FC0A801445051094617570708F498C032
:1039900002501109061B170B019311936D937C9331
:1039A000CF010E94101C8CC05B01A01AB10A4E010D
:1039B000800E911EA0910B01B0910C01612C712C15
:1039C00060E070E0109709F449C0A815B905C9F581
:1039D000ED90FC901197670142E0C40ED11CCA140F
:1039E000DB0478F147018A189B08640142E0C40EA9
:1039F000D11C1296BC9012971396AC91B5E0CB16E1
:103A0000D10440F0B282A38391828082D9018D9348
:103A10009C9309C00E5F1F4F0E0D1F1DF9011183EE
:103A20000083EB2DFA2F6115710531F0DB01139640
:103A3000FC93EE93129744C0F0930C01E0930B01BA
:103A40003FC06D917C9111976616770608F43B0193
:103A5000BD0112960D90BC91A02DB4CF60910901CB
:103A600070910A0168157905E9F468167906D0F4B1
:103A700040916000509161004115510541F44DB7EE
:103A80005EB76091640070916500461B570BE417A8
:103A9000F507C0F4F0930A01E0930901F90191835D
:103AA00080830EC00E94781B7C01009759F0A8010A
:103AB000BE010E94761DCE010E94101CC70104C0E9
:103AC000CE0102C080E090E0CDB7DEB7EEE00C940E
:103AD0005F20FB01DC0104C08D910190801921F46D
:103AE00041505040C8F7881B990B0895FB01DC0139
:103AF00002C001900D9241505040D8F70895BB2765
:103B00004A3031F4992322F4BDE2909581959F4F7C
:103B10000C948B1DBB27FB015527AA27880F991FE3
:103B2000AA1FA41710F0A41B83955051B9F7A05DEC
:103B3000AA3308F0A95DA193009779F7B111B19369
:103B40001192CB010C941F20E199FECF9FBB8EBB3D
:103B5000E09A99278DB30895A8E1B0E042E050E0E3
:103B60000C943120262FE199FECF9FBB8EBBE09AAB
:103B700001970DB2021631F02DBB0FB6F894E29A00
:103B8000E19A0FBE08950196272F0E94B31D0C9451
:103B9000B21D6F927F929F92AF92BF92CF92DF92AF
:103BA000EF92FF920F931F93CF93DF93CDB7DEB7C2
:103BB00029970FB6F894DEBF0FBECDBF6A01B22EB3
:103BC000102F0C3320F4FF24F394F00E02C04CE3CA
:103BD000F42E0F2D27E0AE014F5F5F4F0E94471F6D
:103BE0007981272F2970213031F0E1FC06C0E0FCFB
:103BF00006C060E005C06DE203C06BE201C060E298
:103C0000AE2DA07173FF36C0662311F084E001C0B1
:103C100083E08B1510F4B81A01C0B12CA1110BC0B0
:103C2000F6018B2D90E2882319F091938150FBCF00
:103C3000CB0CD11CB12C662331F0F60160839601C8
:103C40002F5F3F4F6901C6010396E2FE05C02EE4D7
:103C5000F601208331E404C02EE6F601208331E62C
:103C600031832283FC012B2D30E22223F1F13193A9
:103C70002150FBCF72FF40C0662311F084E001C0E9
:103C800083E08B1510F4B81A01C0B12CA1110BC040
:103C9000F6018B2D90E2882319F091938150FBCF90
:103CA000CB0CD11CB12C662331F0F6016083960158
:103CB0002F5F3F4F6901C6010396E2FE07C029E46A
:103CC000F60120832EE4218326E406C029E6F601CE
:103CD00020832EE6218326E62283FC012B2D30E271
:103CE000222319F031932150FBCFFC01EB0DF11D84
:103CF00010828EEF9FEFB7C0B1E0611101C0B0E05C
:103D00004B2F50E01816190624F49C012F5F3F4FEB
:103D100002C021E030E0240F351F112329F0412F8C
:103D200050E04F5F5F4F02C040E050E0420F531F32
:103D30002B2D30E04217530714F4B41A01C0B12CF4
:103D40002E2D287159F4F6012B2D30E2222319F083
:103D500031932150FBCFCB0CD11CB12CBB2331F0C4
:103D6000F601608396012F5F3F4F6901A1110BC0DF
:103D7000F6012B2D30E3222319F031932150FBCF94
:103D8000CB0CD11CB12CF80E0A81372F3071A32E29
:103D900074FF03C0013309F4FA941F142CF42F2D7F
:103DA000293018F028E001C021E0682F392F97FF53
:103DB00002C060E030E0462F532F612C712C3EE2B0
:103DC000932EBC01621B71099B01DC01A41BB50B86
:103DD000E1E0F0E0EC0FFD1FAE0FBF1FE12EF12C74
:103DE000F194E194F1084F3FFFEF5F0731F4F601E2
:103DF0009082B6016F5F7F4F6B01841795074CF07F
:103E00002417350734F4BD01660D771DFB011181C0
:103E100001C010E341505109FFEF6F1A7F0AB6014C
:103E20006F5F7F4F4E155F0524F0F60110836B0125
:103E3000DACF4817590739F4063320F4053319F45B
:103E4000A11001C011E3F6011083FB018B2D90E25C
:103E5000882319F091938150FBCFFB01EB0DF11DED
:103E6000108280E090E029960FB6F894DEBF0FBE76
:103E7000CDBFDF91CF911F910F91FF90EF90DF9019
:103E8000CF90BF90AF909F907F906F900895283013
:103E900008F027E03327DA01990F311D87FD916083
:103EA00000966105710539F432602E5F3D9330E371
:103EB0002A95E1F708959F3F30F08038710561053C
:103EC00009F03C5F3C5F3D93913008F08068911DA4
:103ED000DF93CF931F930F93FF92EF92192F987F49
:103EE0009695E92F96959695E90FFF27E057F64F9F
:103EF00099273327EE24FF24A701E70105900894B2
:103F0000079428F4360FE71EF81E491F511D660F4F
:103F1000771F881F991F0694A1F70590079428F42E
:103F2000E70EF81E491F561FC11D770F881F991FE6
:103F3000661F0694A1F70590079428F4F80E491F10
:103F4000561FC71FD11D880F991F661F771F069424
:103F5000A1F70590079420F4490F561FC71FD81FDB
:103F6000990F661F771F881F0694A9F784911095F3
:103F7000177041F0D695C79557954795F794E794F4
:103F80001A95C1F7E6E3F9E068941590159135911B
:103F90006591959105907FE27395E118F10A430BC5
:103FA000560BC90BD009C0F7E10CF11E431F561F79
:103FB000C91FD01D7EF4703311F48A95E6CFE894C2
:103FC000015030F0080F0AF40027021708F4202FE0
:103FD0002395022F7A3328F079E37D932A95E9F728
:103FE00010C07D932A9589F6069497956795379525
:103FF00017951794E118F10A430B560BC90BD0091A
:1040000098F023957E9173957A3308F070E37C9352
:104010002013B8F77E9170617D9330F0839571E342
:104020007D9370E32A95E1F71124EF90FF900F91B3
:104030001F91CF91DF91992787FD90950895DC011D
:10404000FC01672F71917723E1F7329704C07C91CF
:104050006D9370836291AE17BF07C8F30895DC01BA
:10406000CB01FC01E199FECF06C0FFBBEEBBE09A9D
:1040700031960DB20D9241505040B8F708952F92ED
:104080003F924F925F926F927F928F929F92AF92E8
:10409000BF92CF92DF92EF92FF920F931F93CF9335
:1040A000DF93CDB7DEB7CA1BDB0B0FB6F894DEBFCC
:1040B0000FBECDBF09942A88398848885F846E84F2
:1040C0007D848C849B84AA84B984C884DF80EE803C
:1040D000FD800C811B81AA81B981CE0FD11D0FB645
:1040E000F894DEBF0FBECDBFED010895F894FFCF69
:0C40F00000000D0120002C0030000A0030
:00000001FF
