:100000000C942A000C9434000C9434000C943400AA
:100010000C9434000C9434000C9434000C94340090
:100020000C9434000C9434000C9434000C94340080
:100030000C9434000C9434000C9434000C94340070
:100040000C9434000C9434000C9434000C94340060
:100050000C94340011241FBECFE5D4E0DEBFCDBF29
:100060000E9436000C94B1000C94000060E875E228
:1000700080E090E00E945C0080E090E000E010E012
:10008000D1E0C0E0009731F481E30E948B008D2F16
:100090009C2F08C08130910529F480E30E948B00D9
:1000A000802F912F2FEF34E34CE02150304040401F
:1000B000E1F700C00000E6CF1BB82AB128612AB9D9
:1000C00020B5266820BDDC01CB01880F991FAA1F2F
:1000D000BB1F880F991FAA1FBB1F9C01AD01220FD8
:1000E000331F441F551F220F331F441F551F60E04D
:1000F00072E18AE790E00E948F008FEF820F89B94A
:10010000DA01C9010197A109B109892F9A2FAB2FF3
:10011000BB2780BD08958CB95D9BFECF0895A1E2F9
:100120001A2EAA1BBB1BFD010DC0AA1FBB1FEE1F71
:10013000FF1FA217B307E407F50720F0A21BB30BBC
:10014000E40BF50B661F771F881F991F1A9469F738
:1001500060957095809590959B01AC01BD01CF0194
:060160000895F894FFCFA2
:00000001FF
