:100000000C942A000C9447000C9447000C94470071
:100010000C9447000C9447000C9447000C9460002B
:100020000C9447000C9447000C9447000C94470034
:100030000C9447000C946E000C9497000C944700AD
:100040000C9447000C9447000C9447000C94470014
:100050000C94470011241FBECFE5D8E0DEBFCDBF12
:1000600010E0A0E6B0E0EAE8F7E002C005900D92EB
:10007000AC36B107D9F720E0ACE6B0E001C01D9284
:10008000A13CB207E1F70E9429010C94C3030C9430
:1000900000002AE0AC01249FC001259F900D11248F
:1000A00080579E4F803951E095073CF0893928E010
:1000B00092072CF088E998E0089580E991E008958E
:1000C0001F920F920FB60F9211248F938FEF8BBB5D
:1000D0008F910F900FBE0F901F9018951F920F9247
:1000E0000FB60F9211242F938F939F93EF93FF934B
:1000F0008BB19CB18871E0917800EF5FEF71209136
:100100007700E21739F0E0937800F0E0E558FF4F10
:10011000908301C082E080937600FF91EF919F91E0
:100120008F912F910F900FBE0F901F9018951F92D7
:100130000F920FB60F9211248F939F93EF93FF931B
:1001400090917A0080917900981761F0E0917900A0
:10015000EF5FEF71E0937900F0E0E556FF4F8081AB
:100160008CB901C05598FF91EF919F918F910F909D
:100170000FBE0F901F90189510927A001092790080
:10018000109278001092770097FF03C022E02BB9FD
:100190009F7790BD89B988E98AB986E880BD0895BE
:1001A0009091780080917700981791F0E091770016
:1001B000EF5FEF71E0937700F0E0E558FF4F2081AB
:1001C0008091760090E0982F8827820F911D0895E6
:1001D00080E091E0089590917A009F5F9F71209157
:1001E00079009217E1F3E92FF0E0E556FF4F8083A5
:1001F00090937A00559A0895CF93DF93EC018991FB
:10020000882319F00E94EB00FACFDF91CF91089577
:10021000CF93DF93FC018491EF012196882321F095
:100220000E94EB00FE01F7CFDF91CF9108958091FE
:1002300078002091770090E04F96821B91096FE142
:1002400070E00E94660308958091770080937800A3
:100250000895CF93DF9300D000D01F92CDB7DEB7C3
:1002600083E390E00E94BC008FEF8ABB87BB8FB511
:1002700082608FBD8EB58A618EBD89B7806189BF6E
:100280008FE19EE497BD86BD78948AE590E09093D7
:100290006B0080936A00909369008093680090934C
:1002A0006700809366008FEF88BBCC24C394D12C69
:1002B0000FEF1FEF26EAE22EFF24FA943AE5A32E71
:1002C000B12C99249A944AE0842E8CB59DB58C3239
:1002D000914008F454C08CB59DB58D3F984008F00E
:1002E0004EC06CB47DB480916A0090916B000E9406
:1002F00049006816790610F0D899D8986CB47DB486
:1003000080916800909169000E9449006816790602
:1003100010F0D999D9986CB47DB480916600909111
:1003200067000E9449006816790610F0DA99DA9899
:100330006CB47DB480916400909165000E94490086
:100340006816790610F0DB99DB986CB47DB4809167
:100350006200909163000E9449006816790610F0CF
:10036000DC99DC986CB47DB4809160009091610060
:100370000E9449006816790610F0DD99DD988CB569
:100380009DB58C32914030F08CB59DB58D3F984035
:1003900008F49BCF0E94D0008032910509F479C007
:1003A0008A309105C1F420916C0030916D00209F3E
:1003B000C001219F900D309F900D112490936D00EE
:1003C00080936C0080916C0090916D0090936F0011
:1003D00080936E003DC08D32910509F458C08C3277
:1003E0009105E9F520916C0030916D00209FC001CE
:1003F000219F900D309F900D112490936D0080935C
:100400006C0080916C0090916D004AE0BE016F5FBE
:100410007F4F0E948E0381E0C816D10459F4809169
:100420006C0090916D009093730080937200C12CCA
:10043000D12C0EC0C114D10459F480916C0090915C
:100440006D009093710080937000CC24C394D12CE4
:1004500010926D0010926C0001E010E01AC09C0137
:10046000205331092A303105A0F440916C0050919D
:100470006D00849E9001859E300D1124205331091A
:10048000280F391F30936D0020936C0002C00FEFCE
:100490001FEF80916E0090916F000B9714F098BA47
:1004A00007C080916E0090916F000A970CF418BA03
:1004B00080916E0090916F00863A9F4F2CF4F092DD
:1004C0006F00E0926E000BC080916E0090916F0003
:1004D0008B35910524F0B0926F00A0926E00809150
:1004E000BD009091BE0020916E0030916F00821B84
:1004F000930B97FF03C091958195910904970CF098
:10050000E4CE80916E0090916F00865A9F4F909339
:100510006B0080936A0080916E0090916F009093C1
:10052000BE008093BD008091720090917300863A66
:100530009F4F2CF4F0927300E09272000BC08091F8
:100540007200909173008B35910524F0B092730086
:10055000A09272008091BB009091BC00209172002B
:1005600030917300821B930B97FF03C09195819587
:10057000910904970CF0A9CE8091720090917300BC
:10058000865A9F4F9093630080936200809172001F
:10059000909173009093BC008093BB008091700099
:1005A00090917100863A9F4F2CF4F0927100E09286
:1005B00070000BC080917000909171008B35910597
:1005C00024F0B0927100A09270008091BF009091D1
:1005D000C0002091700030917100821B930B97FF37
:1005E00003C091958195910904970CF06ECE80918E
:1005F000700090917100CD979CF080917000909167
:1006000071008837910564F48091700090917100B9
:100610009501281B390B30936900209368004DC069
:1006200080917000909171004F97C4F0809170009C
:1006300090917100863991058CF4809170009091B1
:1006400071002091680030916900865A9F4F821B8B
:10065000930B90936700809366002FC08091680091
:100660009091690020916600309167004091700080
:1006700050917100B701641B750B260F371F820F55
:10068000931F873A9F4FCCF080916800909169004A
:100690002091660030916700409170005091710088
:1006A000B701641B750B260F371F820F931F8C54E5
:1006B0009F4F9093650080936400809170009091AB
:1006C00071009093C0008093BF00FFCD97FB072E71
:1006D00016F4009407D077FD09D00E947A0307FC36
:1006E00005D03EF4909581959F4F08957095619542
:1006F0007F4F0895AA1BBB1B51E107C0AA1FBB1F58
:10070000A617B70710F0A61BB70B881F991F5A959D
:10071000A9F780959095BC01CD010895BB274A307B
:1007200031F4992322F4BDE2909581959F4F0C946A
:100730009A03BB27FB015527AA27880F991FAA1FD9
:10074000A41710F0A41B83955051B9F7A05DAA33EC
:1007500008F0A95DA193009779F7B111B1931192B7
:10076000CB010C94B303DC01FC01672F719177235B
:10077000E1F7329704C07C916D9370836291AE175C
:0A078000BF07C8F30895F894FFCFF7
:0C078A005A005A005A005A005A005A0047
:00000001FF
