:100000000C942A000C9447000C9447000C94470071
:100010000C9447000C9447000C9447000C9460002B
:100020000C9447000C9447000C9447000C94470034
:100030000C9447000C946E000C9497000C944700AD
:100040000C9447000C9447000C9447000C94470014
:100050000C94470011241FBECFE5D8E0DEBFCDBF12
:1000600010E0A0E6B0E0ECE0F7E002C005900D92F1
:10007000AC37B107D9F720E0ACE7B0E001C01D9282
:10008000A53CB207E1F70E9429010C9484030C946B
:1000900000002AE0AC01249FC001259F900D11248F
:1000A00080579E4F803951E095073CF0893928E010
:1000B00092072CF088E998E0089580E991E008958E
:1000C0001F920F920FB60F9211248F938FEF8BBB5D
:1000D0008F910F900FBE0F901F9018951F920F9247
:1000E0000FB60F9211242F938F939F93EF93FF934B
:1000F0008BB19CB18871E0918200EF5FEF7120912C
:100100008100E21739F0E0938200F0E0EB57FF4FF7
:10011000908301C082E080938000FF91EF919F91D6
:100120008F912F910F900FBE0F901F9018951F92D7
:100130000F920FB60F9211248F939F93EF93FF931B
:100140009091840080918300981761F0E091830082
:10015000EF5FEF71E0938300F0E0EB55FF4F80819C
:100160008CB901C05598FF91EF919F918F910F909D
:100170000FBE0F901F90189510928400109283006C
:10018000109282001092810097FF03C022E02BB9E9
:100190009F7790BD89B988E98AB986E880BD0895BE
:1001A0009091820080918100981791F0E0918100F8
:1001B000EF5FEF71E0938100F0E0EB57FF4F20819C
:1001C0008091800090E0982F8827820F911D0895DC
:1001D00080E091E00895909184009F5F9F7120914D
:1001E00083009217E1F3E92FF0E0EB55FF4F808396
:1001F00090938400559A0895CF93DF93EC018991F1
:10020000882319F00E94EB00FACFDF91CF91089577
:10021000CF93DF93FC018491EF012196882321F095
:100220000E94EB00FE01F7CFDF91CF9108958091FE
:1002300082002091810090E04F96821B91096FE12E
:1002400070E00E94270308958091810080938200CE
:100250000895CF93DF93CDB7DEB72B970FB6F89401
:10026000DEBF0FBECDBF83E390E00E94BC008FEFE6
:100270008ABB87BB8FB582608FBD8EB58A618EBD0C
:1002800089B7806189BF8FE19EE497BD86BD789470
:100290008AE590E090937B0080937A008DE790E070
:1002A00090937700809376008CE890E090937900AB
:1002B0008093780018BAE12CF12C212C312C1B866C
:1002C0001A86CC24C394D12C88248A94982C19861D
:1002D0001886A12CB12C00E010E01F821E82412C58
:1002E000512C8CB59DB58C32914008F454C08CB51E
:1002F0009DB58D3F984008F04EC06CB47DB48091A0
:100300007A0090917B000E9449006816790610F0EF
:10031000D899D8986CB47DB4809178009091790088
:100320000E9449006816790610F0D999D9986CB4E2
:100330007DB480917600909177000E944900681604
:10034000790610F0DA99DA986CB47DB48091740073
:10035000909175000E9449006816790610F0DB99AB
:10036000DB986CB47DB480917200909173000E9410
:1003700049006816790610F0DC99DC986CB47DB4FD
:1003800080917000909171000E9449006816790672
:1003900010F0DD99DD988CB59DB58C32914030F030
:1003A0008CB59DB58D3F984008F49BCF0E94D0003E
:1003B0009C018032910509F495C08A30910571F550
:1003C00040917C0050917D00489DC001499D900D59
:1003D000589D900D112490937D0080937C00809116
:1003E0007C0090917D0060E177E20E9427037B878B
:1003F0006A8780917C0090917D0068EE73E00E9496
:100400002703CB01B9010E9427031C0110927D0034
:1004100010927C00CC24C394D12C48C08D3291051D
:1004200009F45DC08C32910509F044C020917C0034
:1004300030917D00289DC001299D900D389D900D23
:10044000112490937D0080937C0080917C0090919A
:100450007D004AE0BE016F5F7F4F0E944F0381E045
:10046000C816D10439F440907C0050907D00C12C16
:10047000D12C18C0C114D10441F400917C0010911A
:100480007D0032E0C32ED12C0DC092E0C916D104FC
:1004900049F480917C0090917D009F838E83CC24D1
:1004A000C394D12C10927D0010927C0088248394F8
:1004B000912C18C0C0970A97A8F440917C005091E5
:1004C0007D006AE0649FC001659F900D1124C09774
:1004D000820F931F90937D0080937C0003C088243B
:1004E0008A94982C8E819F81865A9F4F90937B008F
:1004F00080937A00888599858419950997FF03C0B0
:100500009195819591094E9754F48AE590E084196C
:100510009509909373008093720059864886C501AF
:10052000801B910B4D96CB9708F057C01016110603
:10053000ACF483E790E0801B910B9093770080935D
:1005400076008AE590E0801B910B90937500809374
:10055000740010926D0010926C002AC001151105F4
:1005600039F10B3B9FEF190744F0C80184579F4FA7
:1005700090937900809378000AC086E490E090938D
:100580007900809378000C3A9FEF190724F0C80196
:100590008D589F4F02C08EE190E09093770080933A
:1005A0007600C801865A9F4F90937500809374001F
:1005B000C8010197099718F481E088BB0DC0C801F4
:1005C0000B97099718F492E098BB06C0C8014597AD
:1005D0004D9710F424E028BB58018A859B8501972C
:1005E000A9F49FEFE91AF90A8091700090917100C7
:1005F0008F970CF476CE2BE0E216F1040CF471CE5A
:10060000809170009091710001971AC081E02816C6
:10061000310409F066CE9FEFE91AF90A8091700063
:1006200090917100833691050CF05BCE2BE0E216C1
:10063000F1040CF456CE80917000909171000196F7
:100640009093710080937000E12CF12C4ACE97FBBF
:10065000072E16F4009407D077FD09D00E943B03C3
:1006600007FC05D03EF4909581959F4F08957095B5
:1006700061957F4F0895AA1BBB1B51E107C0AA1FBC
:10068000BB1FA617B70710F0A61BB70B881F991F33
:100690005A95A9F780959095BC01CD010895BB2787
:1006A0004A3031F4992322F4BDE2909581959F4F11
:1006B0000C945B03BB27FB015527AA27880F991FC2
:1006C000AA1FA41710F0A41B83955051B9F7A05D81
:1006D000AA3308F0A95DA193009779F7B111B193FE
:1006E0001192CB010C947403DC01FC01672F719112
:1006F0007723E1F7329704C07C916D937083629108
:0C070000AE17BF07C8F30895F894FFCFB0
:10070C0001000100010001000100010001000100D5
:0C071C005A005A005A0073008C005A006A
:00000001FF
