:100000000C942A000C9447000C9447000C94470071
:100010000C9447000C9447000C9447000C9460002B
:100020000C9447000C9447000C9447000C94470034
:100030000C9447000C94A7000C94D0000C9447003B
:100040000C9447000C9447000C9447000C94470014
:100050000C94470011241FBECFE5D8E0DEBFCDBF12
:1000600010E0A0E6B0E0E6ECF8E002C005900D92EA
:10007000AC37B107D9F720E0ACE7B0E001C01D9282
:10008000AB3DB207E1F70E9462010C9461040C944D
:1000900000002AE0AC01249FC001259F900D11248F
:1000A00080579E4F803951E095073CF0893928E010
:1000B00092072CF088E998E0089580E991E008958E
:1000C0001F920F920FB60F9211248F939F931BBA1A
:1000D00080916E0090916F00019709F4D89A8091F9
:1000E0006C0090916D00019709F4D99A80916A0093
:1000F00090916B00019709F4DA9A809168009091D1
:100100006900019709F4DB9A80916600909167007D
:10011000019709F4DC9A8091640090916500019741
:1001200009F4DD9A8091620090916300019709F4CF
:10013000DE9A8091600090916100019709F4DF9A46
:100140009F918F910F900FBE0F901F9018951F9247
:100150000F920FB60F9211242F938F939F93EF93CB
:10016000FF938BB19CB18871E0918000EF5FEF71DC
:1001700020917F00E21739F0E0938000F0E0ED5726
:10018000FF4F908301C082E080937E00FF91EF914A
:100190009F918F912F910F900FBE0F901F901895E8
:1001A0001F920F920FB60F9211248F939F93EF938C
:1001B000FF939091820080918100981761F0E09107
:1001C0008100EF5FEF71E0938100F0E0ED55FF4FAC
:1001D00080818CB901C05598FF91EF919F918F91CB
:1001E0000F900FBE0F901F901895109282001092E2
:1001F00081001092800010927F0097FF03C022E0E0
:100200002BB99F7790BD89B988E98AB986E880BD06
:1002100008959091800080917F00981791F0E0916F
:100220007F00EF5FEF71E0937F00F0E0ED57FF4F4D
:10023000208180917E0090E0982F8827820F911D69
:10024000089580E091E00895909182009F5F9F71F2
:10025000209181009217E1F3E92FF0E0ED55FF4F77
:10026000808390938200559A0895CF93DF93EC0199
:100270008991882319F00E942401FACFDF91CF9150
:100280000895CF93DF93FC018491EF012196882399
:1002900021F00E942401FE01F7CFDF91CF91089554
:1002A0008091800020917F0090E04F96821B910901
:1002B0006FE170E00E942603089580917F00809393
:1002C0008000089583E390E00E94F500789417BAC7
:1002D0008FEF8ABB8FB582608FBD8EB589618EBD71
:1002E00089B7806189BF8FE19EE497BD86BD789410
:1002F0008AE590E090937B0080937A0083E790E01A
:10030000909377008093760082E890E09093790054
:10031000809378008CB59DB58C32914008F454C020
:100320008CB59DB58D3F984008F04EC0ECB4FDB43F
:1003300080917A0090917B000E944900E816F906AE
:1003400010F0D899D898ECB4FDB4809178009091D1
:1003500079000E944900E816F90610F0D999D99859
:10036000ECB4FDB480917600909177000E94490032
:10037000E816F90610F0DA99DB98ECB4FDB4809138
:100380007400909175000E944900E816F90610F07B
:10039000DB99DC98ECB4FDB480917200909173000D
:1003A0000E944900E816F90610F0DC99DD98ECB4DB
:1003B000FDB480917000909171000E944900E81690
:1003C000F90610F0DD99DE988CB59DB58C32914020
:1003D00030F08CB59DB58D3F984008F49BCFC09010
:1003E000CF00D090D000E090D100F090D20020E07B
:1003F00030E044EB52ECC701B6010E94B30387FF23
:1004000005C080E090E0A4EBB2EC0EC020E030E04C
:1004100044EB52E4C701B6010E945D04181664F46F
:1004200080E090E0A4EBB2E48093CF009093D00002
:10043000A093D100B093D200C090CF00D090D00054
:10044000E090D100F090D200A70196016091C70022
:100450007091C8008091C9009091CA000E944E031B
:100460000E94B703675F7F4F63317105B0F420E0EE
:1004700030E044EB52E4C701B6010E944F030E94F2
:10048000B70370937B0060937A00C092C700D0924C
:10049000C800E092C900F092CA00C090D700D09086
:1004A000D800E090D900F090DA0020E030E044EB92
:1004B00052ECC701B6010E94B30387FF05C080E07C
:1004C00090E0A4EBB2EC0EC020E030E044EB52E44C
:1004D000C701B6010E945D04181664F480E090E044
:1004E000A4EBB2E48093D7009093D800A093D900F6
:1004F000B093DA00C090D700D090D800E090D90037
:10050000F090DA00A70196016091C3007091C400D9
:100510008091C5009091C6000E944E030E94B703CF
:10052000675F7F4F63317105B0F420E030E044EB4A
:1005300052E4C701B6010E944F030E94B7037093B3
:10054000730060937200C092C300D092C400E09226
:10055000C500F092C600C090D300D090D400E090C7
:10056000D500F090D60020E030E044EB52ECC7011B
:10057000B6010E94B30387FF05C080E090E0A4EBC2
:10058000B2EC0EC020E030E044EB52E4C701B6010B
:100590000E945D04181664F480E090E0A4EBB2E4DD
:1005A0008093D3009093D400A093D500B093D6004D
:1005B000C090D300D090D400E090D500F090D60049
:1005C000A70196016091CB007091CC008091CD0085
:1005D0009091CE000E944E030E94B703675F7F4F49
:1005E0006331710508F096CE20E030E0A901C70123
:1005F000B6010E94B30387FF20C0A701960160E007
:1006000070E086EE92E40E944E030E94B70370935E
:10061000770060937600A701960160E070E084EBBC
:1006200092E40E944E030E94B7037093750060939A
:10063000740010926D0010926C00C092CB00D092AA
:10064000CC00E092CD00F092CE0064CE97FB072E56
:1006500016F4009407D077FD09D00E943A0307FCF6
:1006600005D03EF4909581959F4F089570956195C2
:100670007F4F0895AA1BBB1B51E107C0AA1FBB1FD8
:10068000A617B70710F0A61BB70B881F991F5A951E
:10069000A9F780959095BC01CD0108955058BB27CE
:1006A000AA270ED0D0C0C1D030F0C6D020F031F48F
:1006B0009F3F11F41EF4B6C00EF4E095E7FBACC00A
:1006C000E92FD2D080F3BA17620773078407950722
:1006D00018F071F49EF5EAC00EF4E0950B2EBA2FD7
:1006E000A02D0B01B90190010C01CA01A001112438
:1006F000FF27591B99F0593F50F4503E68F11A16E4
:10070000F040A22F232F342F4427585FF3CF469574
:1007100037952795A795F0405395C9F77EF41F1696
:10072000BA0B620B730B840BBAF09150A1F0FF0F60
:10073000BB1F661F771F881FC2F70EC0BA0F621F4C
:10074000731F841F48F4879577956795B795F7953C
:100750009E3F08F0B3CF9395880F08F09927EE0FCE
:1007600097958795089534D008F481E0089504D0D2
:100770006894B1119CC008957FD088F09F5790F085
:10078000B92F9927B751A0F0D1F0660F771F881FB6
:10079000991F1AF0BA95C9F712C0B13081F086D00E
:1007A000B1E0089583C0672F782F8827B85F39F0AC
:1007B000B93FCCF3869577956795B395D9F73EF415
:1007C00090958095709561957F4F8F4F9F4F0895BD
:1007D000990F0008550FAA0BE0E8FEEF1616170652
:1007E000E807F907C0F012161306E407F50798F0BA
:1007F000621B730B840B950B39F40A2661F0232BD3
:10080000242B252B21F408950A2609F4A140A6954E
:100810008FEF811D811D089597F99F6780E870E033
:1008200060E008959FEF80EC089500240A94161666
:10083000170618060906089500240A9412161306CE
:10084000140605060895092E0394000C11F488235C
:1008500052F0BB0F40F4BF2B11F460FF04C06F5F78
:100860007F4F8F4F9F4F089557FD9058440F551F4E
:1008700059F05F3F71F04795880F97FB991F61F022
:100880009F3F79F087950895121613061406551F99
:10089000F2CF4695F1DF08C0161617061806991F05
:1008A000F1CF86957105610508940895E894BB27FA
:1008B00066277727CB0197F908958ADF08F48FEF31
:0608C0000895F894FFCF3B
:1008C600010001000100010001000100010001001A
:0C08D6005A005A005A0073005A005A00E1
:00000001FF
