:100000000C942A000C9447000C9447000C94470071
:100010000C9447000C9447000C9447000C9460002B
:100020000C9447000C9447000C9447000C94470034
:100030000C9447000C946E000C9497000C944700AD
:100040000C9447000C9447000C9447000C94470014
:100050000C94470011241FBECFE5D8E0DEBFCDBF12
:1000600010E0A0E6B0E0E8E6F6E002C005900D92F0
:10007000AC37B107D9F720E0ACE7B0E001C01D9282
:10008000A53CB207E1F70E9429010C9432030C94BD
:1000900000002AE0AC01249FC001259F900D11248F
:1000A00080579E4F803951E095073CF0893928E010
:1000B00092072CF088E998E0089580E991E008958E
:1000C0001F920F920FB60F9211248F938FEF8BBB5D
:1000D0008F910F900FBE0F901F9018951F920F9247
:1000E0000FB60F9211242F938F939F93EF93FF934B
:1000F0008BB19CB18871E0918200EF5FEF7120912C
:100100008100E21739F0E0938200F0E0EB57FF4FF7
:10011000908301C082E080938000FF91EF919F91D6
:100120008F912F910F900FBE0F901F9018951F92D7
:100130000F920FB60F9211248F939F93EF93FF931B
:100140009091840080918300981761F0E091830082
:10015000EF5FEF71E0938300F0E0EB55FF4F80819C
:100160008CB901C05598FF91EF919F918F910F909D
:100170000FBE0F901F90189510928400109283006C
:10018000109282001092810097FF03C022E02BB9E9
:100190009F7790BD89B988E98AB986E880BD0895BE
:1001A0009091820080918100981791F0E0918100F8
:1001B000EF5FEF71E0938100F0E0EB57FF4F20819C
:1001C0008091800090E0982F8827820F911D0895DC
:1001D00080E091E00895909184009F5F9F7120914D
:1001E00083009217E1F3E92FF0E0EB55FF4F808396
:1001F00090938400559A0895CF93DF93EC018991F1
:10020000882319F00E94EB00FACFDF91CF91089577
:10021000CF93DF93FC018491EF012196882321F095
:100220000E94EB00FE01F7CFDF91CF9108958091FE
:1002300082002091810090E04F96821B91096FE12E
:1002400070E00E94D5020895809181008093820021
:100250000895CF93DF9300D000D01F92CDB7DEB7C3
:1002600083E390E00E94BC008FEF8ABB8FB5826071
:100270008FBD8EB58A618EBD89B7806189BF8FE1E0
:100280009EE497BD86BD78948AE590E090937B00CC
:1002900080937A0083E790E09093770080937600D4
:1002A00082E890E090937900809378008FEF88BB8C
:1002B00088248394912CAA24AA94BA2C212C312C22
:1002C000412C512C00E010E0C12CD12CE12CF12C60
:1002D0008CB59DB58C32914008F454C08CB59DB559
:1002E0008D3F984008F04EC06CB47DB480917A0088
:1002F00090917B000E9449006816790610F0D89909
:10030000D8986CB47DB480917800909179000E9467
:1003100049006816790610F0D999D9986CB47DB463
:1003200080917600909177000E94490068167906C6
:1003300010F0DA99DA986CB47DB4809174009091E1
:1003400075000E9449006816790610F0DB99DB9869
:100350006CB47DB480917200909173000E9449004A
:100360006816790610F0DC99DC986CB47DB4809145
:100370007000909171000E9449006816790610F093
:10038000DD99DD988CB59DB58C32914030F08CB5FF
:100390009DB58D3F984008F49BCF0E94D0008032DD
:1003A000910509F470C08A309105A1F420917C0078
:1003B00030917D002A9DC0012B9D900D3A9D900D9E
:1003C000112490937D0080937C00C0907C00D0909D
:1003D0007D0035C08D32910509F452C08C329105F3
:1003E000B1F520917C0030917D002A9DC0012B9DAC
:1003F000900D3A9D900D112490937D0080937C0088
:1004000080917C0090917D004AE0BE016F5F7F4F3C
:100410000E94FD0281E08816910439F4E0907C008E
:10042000F0907D00812C912C0AC08114910439F444
:1004300000917C0010917D0088248394912C10926F
:100440007D0010927C00AA24A394B12C1CC09C01B6
:10045000205331092A303105B0F440917C0050918D
:100460007D006AE0649F9001659F300D1124205348
:100470003109280F391F30937D0020937C0003C081
:10048000AA24AA94BA2CC6018B35910514F08AE5EA
:1004900090E06C0186EAC8168FEFD80624F496EA3D
:1004A000C92EDD24DA94C601865A9F4F90937B00B3
:1004B00080937A00C7018B35910514F08AE590E0AE
:1004C0007C0196EAE9169FEFF90624F486EAE82E05
:1004D000FF24FA94C1018E199F090996439740F4AD
:1004E000C701865A9F4F9093730080937200170143
:1004F0000B35110514F00AE510E0063A2FEF12074C
:1005000014F406EA1FEFC201801B910B0996439772
:1005100008F0DECE10161106ACF483E790E0801BE5
:10052000910B90937700809376008AE590E0801B92
:10053000910B909375008093740010926D0010924F
:100540006C0031C00115110519F4412C512CC0CE9D
:100550000F3C6FEF160744F0C8018E579F4F9093E2
:100560007900809378000AC080E590E0909379004C
:10057000809378000C3A9FEF190744F0C8018D581A
:100580009F4F909377008093760006C08EE190E0B5
:100590009093790080937800C801865A9F4F90937A
:1005A000750080937400280193CE97FB072E16F4F4
:1005B000009407D077FD09D00E94E90207FC05D01E
:1005C0003EF4909581959F4F0895709561957F4F6A
:1005D0000895AA1BBB1B51E107C0AA1FBB1FA6178A
:1005E000B70710F0A61BB70B881F991F5A95A9F7DC
:1005F00080959095BC01CD010895BB274A3031F418
:10060000992322F4BDE2909581959F4F0C940903A4
:10061000BB27FB015527AA27880F991FAA1FA417DC
:1006200010F0A41B83955051B9F7A05DAA3308F0D0
:10063000A95DA193009779F7B111B1931192CB0104
:100640000C942203DC01FC01672F71917723E1F701
:10065000329704C07C916D9370836291AE17BF078F
:08066000C8F30895F894FFCFE0
:10066800010001000100010001000100010001007A
:0C0678005A005A005A00730082005A0019
:00000001FF
