S01100004779726F73636F70652E7372656358
S11300000C942A000C943C000C943C000C943C008E
S11300100C943C000C943C000C943C000C943C006C
S11300200C943C000C944D000C943C000C943C004B
S11300300C943C000C9420040C9449040C943C0053
S11300400C943C000C943C000C943C000C943C003C
S11300500C943C0011241FBECFE5D8E0DEBFCDBF19
S113006020E0A0E6B0E001C01D92A73BB207E1F793
S11300700E9472000C946D060C94000081E08EBD09
S113008084E089BF1DBC1CBC1092A5001092A60080
S11300901092A7001092A80008951F920F920FB615
S11300A00F9211248F939F93AF93BF938091A500D8
S11300B09091A600A091A700B091A8000196A11D5F
S11300C0B11D8093A5009093A600A093A700B093C0
S11300D0A800BF91AF919F918F910F900FBE0F9089
S11300E01F901895CF93DF93CDB7DEB7A4970FB6C3
S11300F0F894DEBF0FBECDBF8FEF8ABB87BB9AEAF1
S11301009BBB88BB1A8219821C821B821E821D82A1
S113011018861F821A8619861C861B861D861E86D3
S11301201F86188A198A1A8A1B8A1C8A1D8A1E8AA3
S11301301F8A188E198E1A8E1B8E1C8E1D8E1E8E73
S11301401F8E18A219A21AA21BA21CA287E690E075
S11301500E946E0478940E9439022FE788E391E0AC
S1130160215080409040E1F700C000000E943E0012
S113017060E875E280E090E00E948204C12CD12CFA
S1130180812C912CA12CB12CCE010B967C018E01DB
S1130190075F1F4F9E01295F3F4FAE014B5F5F4FCB
S11301A0BE016D5F7F4F0A970E946D02CE0181965A
S11301B07C010C5E1F4F9E01275E3F4FAE014B5EDC
S11301C05F4FBE016F5E7F4F44970E94BB0220E0E9
S11301D030E040E251E4698D7A8D8B8D9C8D0E94D4
S11301E0B504882384F520E030E040E251E46D8DCD
S11301F07E8D8F8D98A10E94B504882324F520E07C
S113020030E040E251E469A17AA18BA19CA10E9453
S1130210B5048823C4F491E0C916D10459F42FEF2E
S1130220821A920A85E08816910494F080E30E9471
S1130230B1040EC081E30E94B104CC24C394D12C38
S1130240812C912C05C081E30E94B104CA2CDB2CC3
S11302509FEF24E38CE0915020408040E1F700C000
S1130260000092CFAF92BF92CF92DF92FF920F9392
S11302701F93CF93DF936623B9F1C52FD42FF62EA6
S1130280182F80ED0E948E03812F0E94D8038AE1EB
S11302908A95F1F700C081ED0E948E030D2F1C2F6B
S11302A0CC24CA94CF0CD12CEFEFCE1ADE0AC0E0D6
S11302B0D0E0AF2CB12CF1E0AF1AB108AC16BD06FA
S11302C029F40E940A04F801808304C00E94F40304
S11302D0F801808321960F5F1F4FCC15DD0571F760
S11302E0CF2D0E94CB0301C0C0E08C2FDF91CF91B2
S11302F01F910F91FF90DF90CF90BF90AF90089522
S1130300AB0161E00E9432010895EF92FF920F93D6
S11303101F93CF93DF936623D1F07A01162FC82F52
S113032080ED0E948E038C2F0E94D803E7016FEFAB
S1130330610F062F10E00F5F1F4F0E0D1F1D8991D7
S11303400E94D803C017D107D1F70E94CB03DF91D5
S1130350CF911F910F91FF90EF900895CF93DF936A
S11303601F92CDB7DEB76983AE014F5F5F4F61E087
S11303700E9485010F90DF91CF910895EF92FF9233
S11303800F931F93CF93DF931F92CDB7DEB7442310
S113039089F1F22E142F062FE82E1982BE016F5F09
S11303A07F4F0E948001882329F1402F50E0411B98
S11303B051094F5F5F4F81E090E002C0880F991FA1
S11303C01A95E2F70197042E02C0880F991F0A9428
S11303D0E2F72F2D30E002C0220F331F4A95E2F7D7
S11303E0682F6095998169238223682B69838E2DF8
S11303F00E94AE010F90DF91CF911F910F91FF905A
S1130400EF900895FF920F931F93CF93DF931F9262
S1130410CDB7DEB7182F062FF42EBE016F5F7F4FC6
S11304200E948001FF2051F061E070E002C0660F7D
S1130430771F0A95E2F78981682B0AC061E070E0B2
S113044002C0660F771F0A95E2F7609589816823D9
S11304506983812F0E94AE010F90DF91CF911F918C
S11304600F91FF90089540E066E08BE60E9402023F
S113047008950E948A032AE12A95F1F700C08FEFBC
S113048090E722E0815090402040E1F700C0000056
S11304900E9433028FE19EE40197F1F700C000004F
S11304A021E043E062E08BE60E94BE0123E043E0EA
S11304B062E08AE10E94BE0164E089E10E94AE012B
S11304C023E042E064E08BE10E94BE0120E042E0D0
S11304D064E08CE10E94BE0108958F929F92AF92D6
S11304E0BF92CF92DF92EF92FF920F931F93CF931D
S11304F0DF934C015B016A01E90149EA50E06EE0D7
S11305008BE30E943201E9EAF0E02081818190E0EE
S1130510922BD4018D939C932281838190E0922B22
S1130520D5018D939C932481858190E0922BD601F3
S11305308D939C932085818590E0922B9983888369
S11305402285838590E0922BD8018D939C932485FA
S1130550858590E0922BF70191838083DF91CF9181
S11305601F910F91FF90EF90DF90CF90BF90AF90CD
S11305709F908F9008952F923F924F925F926F9227
S11305807F928F929F92AF92BF92CF92DF92EF921F
S1130590FF920F931F93CF93DF93CDB7DEB72C97C2
S11305A00FB6F894DEBF0FBECDBF3C014B015A011C
S11305B06901280117011A8219821C821B821E827A
S11305C01D8218861F821A8619861C861B86CE01F8
S11305D00B967C018E01075F1F4F9E01295F3F4FE1
S11305E0AE014B5F5F4FBE016D5F7F4F0A970E9464
S11305F06D0269817A81072E000C880B990B0E9489
S11306002E0520E030E040E858E30E94DE05F301C7
S113061060837183828393836B817C81072E000CBA
S1130620880B990B0E942E0520E030E040E858E347
S11306300E94DE05F40160837183828393836D815C
S11306407E81072E000C880B990B0E942E0520E05A
S113065030E040E858E30E94DE05F50160837183D1
S1130660828393836F817885665D7F4F072E000CAC
S1130670880B990B0E942E0523E333E343E851E4EE
S11306800E94BA04F601608371838283938369852F
S11306907A8569507109072E000C880B990B0E940A
S11306A02E0523E333E343E851E40E94BA04F20144
S11306B060837183828393836B857C85635E7F4FC4
S11306C0072E000C880B990B0E942E0523E333E3BD
S11306D043E851E40E94BA04F10160837183828388
S11306E093832C960FB6F894DEBF0FBECDBFDF9177
S11306F0CF911F910F91FF90EF90DF90CF90BF901B
S1130700AF909F908F907F906F905F904F903F90AD
S11307102F90089511B880E280B9089594EA96BFA5
S11307204FEF50E060E070E006B607FC06C04150B1
S1130730510961097109C0F704C0452B462B472BA9
S113074011F191B1987F983011F09031F1F483B99F
S113075084E886BF8FEF90E0A0E0B0E006B607FC27
S113076005C00197A109B109C8F704C0892B8A2BD8
S11307708B2B69F091B1987F983159F081E09034D6
S113078049F480E0089581E0089581E0089581E0CE
S1130790089580E0089584E986BF80E090E006B67D
S11307A004FE05C00196811521E09207C1F7089562
S11307B083B984E886BF8FEF90E0A0E0B0E006B68E
S11307C007FC05C00197A109B109C8F704C0892B2A
S11307D08A2B8B2B39F091B1987F81E0983219F4F0
S11307E080E0089581E0089584EC86BF8FEF90E067
S11307F0A0E0B0E006B607FC05C00197A109B10965
S1130800C8F704C0892B8A2B8B2B11F083B1089570
S113081080E0089584E886BF8FEF90E0A0E0B0E028
S113082006B607FC05C00197A109B109C8F704C0C1
S1130830892B8A2B8B2B11F083B1089580E00895C6
S11308401F920F920FB60F9211242F938F939F93A1
S1130850EF93FF938BB12CB18871E0916200EF5F4D
S1130860EF7190916100E91739F0E0936200F0E0D4
S1130870EB59FF4F208301C082E080936000FF9119
S1130880EF919F918F912F910F900FBE0F901F901A
S113089018951F920F920FB60F9211248F939F9366
S11308A0EF93FF939091640080916300981761F037
S11308B0E0916300EF5FEF71E0936300F0E0EB57CA
S11308C0FF4F80818CB901C05598FF91EF919F91A2
S11308D08F910F900FBE0F901F9018951092640087
S11308E010926300109262001092610099231CF42C
S11308F022E02BB99F7790BD89B988E98AB986E847
S113090080BD08951BB82AB128612AB920B526688C
S113091020BDDC01CB01880F991FAA1FBB1F880FC4
S1130920991FAA1FBB1F9C01AD01220F331F441F37
S1130930551F220F331F441F551F60E072E18AE7E1
S113094090E00E944B068FEF820F89B9DA01C9014A
S11309500197A109B109892F9A2FAB2FBB2780BD1D
S113096008958CB95D9BFECF08950E94690508F433
S113097081E008950E94CE040C94A4050E949D0574
S113098058F00E94960540F029F45F3F29F00C943A
S11309908D0551110C94D8050C9493050E94B5054E
S11309A068F39923B1F3552391F3951B550BBB279A
S11309B0AA2762177307840738F09F5F5F4F220FDF
S11309C0331F441FAA1FA9F335D00E2E3AF0E0E8D6
S11309D032D091505040E695001CCAF72BD0FE2F20
S11309E029D0660F771F881FBB1F261737074807B4
S11309F0AB07B0E809F0BB0B802DBF01FF2793586C
S1130A005F4F3AF09E3F510578F00C948D050C949D
S1130A10D8055F3FE4F3983ED4F3869577956795C0
S1130A20B795F7959F5FC9F7880F911D96958795A0
S1130A3097F90895E1E0660F771F881FBB1F6217BF
S1130A4073078407BA0720F0621B730B840BBA0B7D
S1130A50EE1F88F7E0950895E89409C097FB3EF4EB
S1130A6090958095709561957F4F8F4F9F4F9923F7
S1130A70A9F0F92F96E9BB279395F6958795779575
S1130A806795B795F111F8CFFAF4BB0F11F460FF35
S1130A901BC06F5F7F4F8F4F9F4F16C0882311F08D
S1130AA096E911C0772321F09EE8872F762F05C0A1
S1130AB0662371F096E8862F70E060E02AF09A953C
S1130AC0660F771F881FDAF7880F9695879597F931
S1130AD00895990F0008550FAA0BE0E8FEEF1616CB
S1130AE01706E807F907C0F012161306E407F5071E
S1130AF098F0621B730B840B950B39F40A2661F092
S1130B00232B242B252B21F408950A2609F4A14034
S1130B10A6958FEF811D811D089597F99F6780E841
S1130B2070E060E008959FEF80EC089500240A943B
S1130B301616170618060906089500240A941216B4
S1130B401306140605060895092E0394000C11F4E7
S1130B50882352F0BB0F40F4BF2B11F460FF04C094
S1130B606F5F7F4F8F4F9F4F089557FD9058440FED
S1130B70551F59F05F3F71F04795880F97FB991FF8
S1130B8061F09F3F79F087950895121613061406B5
S1130B90551FF2CF4695F1DF08C016161706180642
S1130BA0991FF1CF86957105610508940895E8941D
S1130BB0BB2766277727CB0197F908950E94F10593
S1130BC00C94A4050E94960538F00E949D0520F01F
S1130BD0952311F00C948D050C94930511240C9419
S1130BE0D8050E94B50570F3959FC1F3950F50E0A9
S1130BF0551F629FF001729FBB27F00DB11D639FCB
S1130C00AA27F00DB11DAA1F649F6627B00DA11D70
S1130C10661F829F2227B00DA11D621F739FB00D16
S1130C20A11D621F839FA00D611D221F749F332786
S1130C30A00D611D231F849F600D211D822F762F1F
S1130C406A2F11249F5750409AF0F1F088234AF0FC
S1130C50EE0FFF1FBB1F661F771F881F9150504068
S1130C60A9F79E3F510580F00C948D050C94D8058E
S1130C705F3FE4F3983ED4F3869577956795B795EF
S1130C80F795E7959F5FC1F7FE2B880F911D969509
S1130C90879597F90895A1E21A2EAA1BBB1BFD01A3
S1130CA00DC0AA1FBB1FEE1FFF1FA217B307E40747
S1130CB0F50720F0A21BB30BE40BF50B661F771F9F
S1130CC0881F991F1A9469F760957095809590957F
S1110CD09B01AC01BD01CF010895F894FFCF44
S9030000FC
